{
  "contractName": "CustomCrowdsale",
  "abi": [
    {
      "constant": true,
      "inputs": [],
      "name": "currentContribution",
      "outputs": [
        {
          "name": "",
          "type": "uint256"
        }
      ],
      "payable": false,
      "stateMutability": "view",
      "type": "function"
    },
    {
      "constant": true,
      "inputs": [],
      "name": "rate",
      "outputs": [
        {
          "name": "",
          "type": "uint256"
        }
      ],
      "payable": false,
      "stateMutability": "view",
      "type": "function"
    },
    {
      "constant": true,
      "inputs": [],
      "name": "cap",
      "outputs": [
        {
          "name": "",
          "type": "uint256"
        }
      ],
      "payable": false,
      "stateMutability": "view",
      "type": "function"
    },
    {
      "constant": true,
      "inputs": [],
      "name": "startingTime",
      "outputs": [
        {
          "name": "",
          "type": "uint256"
        }
      ],
      "payable": false,
      "stateMutability": "view",
      "type": "function"
    },
    {
      "constant": true,
      "inputs": [
        {
          "name": "",
          "type": "address"
        }
      ],
      "name": "contributions",
      "outputs": [
        {
          "name": "",
          "type": "uint256"
        }
      ],
      "payable": false,
      "stateMutability": "view",
      "type": "function"
    },
    {
      "constant": true,
      "inputs": [],
      "name": "closingTime",
      "outputs": [
        {
          "name": "",
          "type": "uint256"
        }
      ],
      "payable": false,
      "stateMutability": "view",
      "type": "function"
    },
    {
      "constant": true,
      "inputs": [],
      "name": "weth9",
      "outputs": [
        {
          "name": "",
          "type": "address"
        }
      ],
      "payable": false,
      "stateMutability": "view",
      "type": "function"
    },
    {
      "constant": true,
      "inputs": [],
      "name": "ICOGoalReached",
      "outputs": [
        {
          "name": "",
          "type": "bool"
        }
      ],
      "payable": false,
      "stateMutability": "view",
      "type": "function"
    },
    {
      "constant": true,
      "inputs": [],
      "name": "ICOCompleted",
      "outputs": [
        {
          "name": "",
          "type": "bool"
        }
      ],
      "payable": false,
      "stateMutability": "view",
      "type": "function"
    },
    {
      "constant": false,
      "inputs": [],
      "name": "renounceOwnership",
      "outputs": [],
      "payable": false,
      "stateMutability": "nonpayable",
      "type": "function"
    },
    {
      "constant": true,
      "inputs": [],
      "name": "owner",
      "outputs": [
        {
          "name": "",
          "type": "address"
        }
      ],
      "payable": false,
      "stateMutability": "view",
      "type": "function"
    },
    {
      "constant": true,
      "inputs": [],
      "name": "isOwner",
      "outputs": [
        {
          "name": "",
          "type": "bool"
        }
      ],
      "payable": false,
      "stateMutability": "view",
      "type": "function"
    },
    {
      "constant": true,
      "inputs": [],
      "name": "contributionGoal",
      "outputs": [
        {
          "name": "",
          "type": "uint256"
        }
      ],
      "payable": false,
      "stateMutability": "view",
      "type": "function"
    },
    {
      "constant": true,
      "inputs": [],
      "name": "releaseTime",
      "outputs": [
        {
          "name": "",
          "type": "uint256"
        }
      ],
      "payable": false,
      "stateMutability": "view",
      "type": "function"
    },
    {
      "constant": false,
      "inputs": [
        {
          "name": "newOwner",
          "type": "address"
        }
      ],
      "name": "transferOwnership",
      "outputs": [],
      "payable": false,
      "stateMutability": "nonpayable",
      "type": "function"
    },
    {
      "constant": true,
      "inputs": [],
      "name": "token",
      "outputs": [
        {
          "name": "",
          "type": "address"
        }
      ],
      "payable": false,
      "stateMutability": "view",
      "type": "function"
    },
    {
      "inputs": [
        {
          "name": "_rate",
          "type": "uint256"
        },
        {
          "name": "_cap",
          "type": "uint256"
        },
        {
          "name": "_contributionGoal",
          "type": "uint256"
        },
        {
          "name": "_wethAddr",
          "type": "address"
        },
        {
          "name": "_tokenAddr",
          "type": "address"
        },
        {
          "name": "_staringTime",
          "type": "uint256"
        },
        {
          "name": "_closingTime",
          "type": "uint256"
        },
        {
          "name": "_releaseTime",
          "type": "uint256"
        }
      ],
      "payable": false,
      "stateMutability": "nonpayable",
      "type": "constructor"
    },
    {
      "payable": true,
      "stateMutability": "payable",
      "type": "fallback"
    },
    {
      "anonymous": false,
      "inputs": [
        {
          "indexed": false,
          "name": "_from",
          "type": "address"
        },
        {
          "indexed": false,
          "name": "_amount",
          "type": "uint256"
        }
      ],
      "name": "Contribution",
      "type": "event"
    },
    {
      "anonymous": false,
      "inputs": [
        {
          "indexed": false,
          "name": "_from",
          "type": "address"
        },
        {
          "indexed": false,
          "name": "_amount",
          "type": "uint256"
        }
      ],
      "name": "ClaimContribution",
      "type": "event"
    },
    {
      "anonymous": false,
      "inputs": [
        {
          "indexed": false,
          "name": "_from",
          "type": "address"
        },
        {
          "indexed": false,
          "name": "time",
          "type": "uint256"
        }
      ],
      "name": "CloseCrowdsale",
      "type": "event"
    },
    {
      "anonymous": false,
      "inputs": [
        {
          "indexed": false,
          "name": "_sender",
          "type": "address"
        },
        {
          "indexed": false,
          "name": "_claimedTokens",
          "type": "uint256"
        },
        {
          "indexed": false,
          "name": "_balance",
          "type": "uint256"
        }
      ],
      "name": "claimContributionPreTx",
      "type": "event"
    },
    {
      "anonymous": false,
      "inputs": [
        {
          "indexed": true,
          "name": "previousOwner",
          "type": "address"
        },
        {
          "indexed": true,
          "name": "newOwner",
          "type": "address"
        }
      ],
      "name": "OwnershipTransferred",
      "type": "event"
    },
    {
      "constant": false,
      "inputs": [],
      "name": "closeICO",
      "outputs": [
        {
          "name": "",
          "type": "bool"
        }
      ],
      "payable": false,
      "stateMutability": "nonpayable",
      "type": "function"
    },
    {
      "constant": false,
      "inputs": [],
      "name": "buyToken",
      "outputs": [
        {
          "name": "",
          "type": "bool"
        }
      ],
      "payable": true,
      "stateMutability": "payable",
      "type": "function"
    },
    {
      "constant": false,
      "inputs": [],
      "name": "claimContribution",
      "outputs": [
        {
          "name": "",
          "type": "uint256"
        }
      ],
      "payable": false,
      "stateMutability": "nonpayable",
      "type": "function"
    },
    {
      "constant": true,
      "inputs": [],
      "name": "getTokenTotalSupply",
      "outputs": [
        {
          "name": "",
          "type": "uint256"
        }
      ],
      "payable": false,
      "stateMutability": "view",
      "type": "function"
    },
    {
      "constant": true,
      "inputs": [
        {
          "name": "contributor",
          "type": "address"
        }
      ],
      "name": "getTokenToClaim",
      "outputs": [
        {
          "name": "",
          "type": "uint256"
        }
      ],
      "payable": false,
      "stateMutability": "view",
      "type": "function"
    },
    {
      "constant": true,
      "inputs": [],
      "name": "getWethTotalSupply",
      "outputs": [
        {
          "name": "",
          "type": "uint256"
        }
      ],
      "payable": false,
      "stateMutability": "view",
      "type": "function"
    },
    {
      "constant": true,
      "inputs": [],
      "name": "getCurrentContribution",
      "outputs": [
        {
          "name": "",
          "type": "uint256"
        }
      ],
      "payable": false,
      "stateMutability": "view",
      "type": "function"
    },
    {
      "constant": true,
      "inputs": [],
      "name": "getRate",
      "outputs": [
        {
          "name": "",
          "type": "uint256"
        }
      ],
      "payable": false,
      "stateMutability": "view",
      "type": "function"
    },
    {
      "constant": true,
      "inputs": [],
      "name": "getCap",
      "outputs": [
        {
          "name": "",
          "type": "uint256"
        }
      ],
      "payable": false,
      "stateMutability": "view",
      "type": "function"
    },
    {
      "constant": true,
      "inputs": [],
      "name": "getGoal",
      "outputs": [
        {
          "name": "",
          "type": "uint256"
        }
      ],
      "payable": false,
      "stateMutability": "view",
      "type": "function"
    },
    {
      "constant": true,
      "inputs": [],
      "name": "isCompleted",
      "outputs": [
        {
          "name": "",
          "type": "bool"
        }
      ],
      "payable": false,
      "stateMutability": "view",
      "type": "function"
    },
    {
      "constant": true,
      "inputs": [],
      "name": "getStartingTime",
      "outputs": [
        {
          "name": "",
          "type": "uint256"
        }
      ],
      "payable": false,
      "stateMutability": "view",
      "type": "function"
    },
    {
      "constant": true,
      "inputs": [],
      "name": "getClosingTime",
      "outputs": [
        {
          "name": "",
          "type": "uint256"
        }
      ],
      "payable": false,
      "stateMutability": "view",
      "type": "function"
    },
    {
      "constant": true,
      "inputs": [],
      "name": "getReleaseTime",
      "outputs": [
        {
          "name": "",
          "type": "uint256"
        }
      ],
      "payable": false,
      "stateMutability": "view",
      "type": "function"
    }
  ],
  "bytecode": "0x608060405260006006556000600a60006101000a81548160ff0219169083151502179055506000600a60016101000a81548160ff0219169083151502179055503480156200004c57600080fd5b50604051610100806200204683398101806040526101008110156200007057600080fd5b810190808051906020019092919080519060200190929190805190602001909291908051906020019092919080519060200190929190805190602001909291908051906020019092919080519060200190929190505050336000806101000a81548173ffffffffffffffffffffffffffffffffffffffff021916908373ffffffffffffffffffffffffffffffffffffffff1602179055506000809054906101000a900473ffffffffffffffffffffffffffffffffffffffff1673ffffffffffffffffffffffffffffffffffffffff16600073ffffffffffffffffffffffffffffffffffffffff167f8be0079c531659141344cd1fd0a4f28419497f9722a3daafe3b4186f6b6457e060405160405180910390a387600381905550866004819055508560058190555084600160006101000a81548173ffffffffffffffffffffffffffffffffffffffff021916908373ffffffffffffffffffffffffffffffffffffffff16021790555083600260006101000a81548173ffffffffffffffffffffffffffffffffffffffff021916908373ffffffffffffffffffffffffffffffffffffffff1602179055508260078190555081600881905550806009819055504260075411620002a7576040517f08c379a00000000000000000000000000000000000000000000000000000000081526004018080602001828103825260168152602001807f53746172696e6754696d65206265666f7265204e6f770000000000000000000081525060200191505060405180910390fd5b6007546008541162000305576040517f08c379a0000000000000000000000000000000000000000000000000000000008152600401808060200182810382526022815260200180620020246022913960400191505060405180910390fd5b6000600454116200037e576040517f08c379a00000000000000000000000000000000000000000000000000000000081526004018080602001828103825260198152602001807f4361702056616c7565206d7573742062652061626f766520300000000000000081525060200191505060405180910390fd5b600060055411620003f7576040517f08c379a000000000000000000000000000000000000000000000000000000000815260040180806020018281038252601a8152602001807f476f616c2056616c7565206d7573742062652061626f7665203000000000000081525060200191505060405180910390fd5b6004546005541162000455576040517f08c379a0000000000000000000000000000000000000000000000000000000008152600401808060200182810382526022815260200180620020026022913960400191505060405180910390fd5b5050505050505050611b95806200046d6000396000f3fe6080604052600436106101cd5760003560e01c8063554d578d116100f7578063a482171911610095578063b97a7d2411610064578063b97a7d24146106f5578063f2fde38b14610720578063fa391c6414610771578063fc0c546a146107a0576101cd565b8063a482171914610652578063ad477c4714610674578063b8623d531461069f578063b91d4001146106ca576101cd565b8063679aefce116100d1578063679aefce1461058a578063715018a6146105b55780638da5cb5b146105cc5780638f32d59b14610623576101cd565b8063554d578d1461050557806357df844b1461053057806363a442621461055b576101cd565b806339518b5e1161016f57806350879c1c1161013e57806350879c1c14610425578063529fc11e1461047c57806353462d6b146104ab57806354238645146104d6576101cd565b806339518b5e1461033f57806342e94c901461036a57806343a42c2f146103cf5780634b6753bc146103fa576101cd565b806320f634b5116101ab57806320f634b5146102595780632c4e722e146102be5780632f9cb9aa146102e9578063355274ea14610314576101cd565b80630114a690146101d85780630dc0c97114610203578063111961f81461022e575b6101d56107f7565b50005b3480156101e457600080fd5b506101ed610d08565b6040518082815260200191505060405180910390f35b34801561020f57600080fd5b50610218611184565b6040518082815260200191505060405180910390f35b34801561023a57600080fd5b5061024361118e565b6040518082815260200191505060405180910390f35b34801561026557600080fd5b506102a86004803603602081101561027c57600080fd5b81019080803573ffffffffffffffffffffffffffffffffffffffff169060200190929190505050611194565b6040518082815260200191505060405180910390f35b3480156102ca57600080fd5b506102d36111e1565b6040518082815260200191505060405180910390f35b3480156102f557600080fd5b506102fe6111e7565b6040518082815260200191505060405180910390f35b34801561032057600080fd5b506103296111f1565b6040518082815260200191505060405180910390f35b34801561034b57600080fd5b506103546111f7565b6040518082815260200191505060405180910390f35b34801561037657600080fd5b506103b96004803603602081101561038d57600080fd5b81019080803573ffffffffffffffffffffffffffffffffffffffff1690602001909291905050506111fd565b6040518082815260200191505060405180910390f35b3480156103db57600080fd5b506103e4611215565b6040518082815260200191505060405180910390f35b34801561040657600080fd5b5061040f6112bf565b6040518082815260200191505060405180910390f35b34801561043157600080fd5b5061043a6112c5565b604051808273ffffffffffffffffffffffffffffffffffffffff1673ffffffffffffffffffffffffffffffffffffffff16815260200191505060405180910390f35b34801561048857600080fd5b506104916112eb565b604051808215151515815260200191505060405180910390f35b3480156104b757600080fd5b506104c06112fe565b6040518082815260200191505060405180910390f35b3480156104e257600080fd5b506104eb611308565b604051808215151515815260200191505060405180910390f35b34801561051157600080fd5b5061051a611411565b6040518082815260200191505060405180910390f35b34801561053c57600080fd5b5061054561141b565b6040518082815260200191505060405180910390f35b34801561056757600080fd5b506105706114c5565b604051808215151515815260200191505060405180910390f35b34801561059657600080fd5b5061059f6114d8565b6040518082815260200191505060405180910390f35b3480156105c157600080fd5b506105ca6114e2565b005b3480156105d857600080fd5b506105e161161b565b604051808273ffffffffffffffffffffffffffffffffffffffff1673ffffffffffffffffffffffffffffffffffffffff16815260200191505060405180910390f35b34801561062f57600080fd5b50610638611644565b604051808215151515815260200191505060405180910390f35b61065a6107f7565b604051808215151515815260200191505060405180910390f35b34801561068057600080fd5b5061068961169b565b6040518082815260200191505060405180910390f35b3480156106ab57600080fd5b506106b46116a1565b6040518082815260200191505060405180910390f35b3480156106d657600080fd5b506106df6116ab565b6040518082815260200191505060405180910390f35b34801561070157600080fd5b5061070a6116b1565b6040518082815260200191505060405180910390f35b34801561072c57600080fd5b5061076f6004803603602081101561074357600080fd5b81019080803573ffffffffffffffffffffffffffffffffffffffff1690602001909291905050506116bb565b005b34801561077d57600080fd5b50610786611741565b604051808215151515815260200191505060405180910390f35b3480156107ac57600080fd5b506107b5611758565b604051808273ffffffffffffffffffffffffffffffffffffffff1673ffffffffffffffffffffffffffffffffffffffff16815260200191505060405180910390f35b6000600a60009054906101000a900460ff161561087c576040517f08c379a000000000000000000000000000000000000000000000000000000000815260040180806020018281038252601d8152602001807f437573746f6d43726f776473616c65204e6f7420436f6d706c6574656400000081525060200191505060405180910390fd5b4260085410156108d7576040517f08c379a0000000000000000000000000000000000000000000000000000000008152600401808060200182810382526034815260200180611aef6034913960400191505060405180910390fd5b60003490506004548110610936576040517f08c379a000000000000000000000000000000000000000000000000000000000815260040180806020018281038252602e815260200180611a9b602e913960400191505060405180910390fd5b60055460065410610992576040517f08c379a0000000000000000000000000000000000000000000000000000000008152600401808060200182810382526041815260200180611a5a6041913960600191505060405180910390fd5b60008110156109ec576040517f08c379a0000000000000000000000000000000000000000000000000000000008152600401808060200182810382526026815260200180611b236026913960400191505060405180910390fd5b6000809050610a04828261177e90919063ffffffff16565b50610a1a6006548261177e90919063ffffffff16565b50600554811115610a5a57610a3c60065460055461180690919063ffffffff16565b91506001600a60016101000a81548160ff0219169083151502179055505b600160009054906101000a900473ffffffffffffffffffffffffffffffffffffffff1673ffffffffffffffffffffffffffffffffffffffff166323b872dd3330856040518463ffffffff1660e01b8152600401808473ffffffffffffffffffffffffffffffffffffffff1673ffffffffffffffffffffffffffffffffffffffff1681526020018373ffffffffffffffffffffffffffffffffffffffff1673ffffffffffffffffffffffffffffffffffffffff1681526020018281526020019350505050602060405180830381600087803b158015610b3757600080fd5b505af1158015610b4b573d6000803e3d6000fd5b505050506040513d6020811015610b6157600080fd5b8101908080519060200190929190505050610be4576040517f08c379a00000000000000000000000000000000000000000000000000000000081526004018080602001828103825260208152602001807f7472616e7366657246726f6d28292057657468657220686173204661696c656481525060200191505060405180910390fd5b610bf98260065461177e90919063ffffffff16565b600681905550610c5182600b60003373ffffffffffffffffffffffffffffffffffffffff1673ffffffffffffffffffffffffffffffffffffffff1681526020019081526020016000205461177e90919063ffffffff16565b600b60003373ffffffffffffffffffffffffffffffffffffffff1673ffffffffffffffffffffffffffffffffffffffff168152602001908152602001600020819055507f4d154d4aae216bed6d0926db77c00df2b57c6b5ba4eee05775de20facede3a7b3383604051808373ffffffffffffffffffffffffffffffffffffffff1673ffffffffffffffffffffffffffffffffffffffff1681526020018281526020019250505060405180910390a160019250505090565b6000600a60009054906101000a900460ff16610d8c576040517f08c379a000000000000000000000000000000000000000000000000000000000815260040180806020018281038252601d8152602001807f437573746f6d43726f776473616c65204e6f7420436f6d706c6574656400000081525060200191505060405180910390fd5b600954421015610de7576040517f08c379a0000000000000000000000000000000000000000000000000000000008152600401808060200182810382526034815260200180611aef6034913960400191505060405180910390fd5b6000610e3d600354600b60003373ffffffffffffffffffffffffffffffffffffffff1673ffffffffffffffffffffffffffffffffffffffff1681526020019081526020016000205461188f90919063ffffffff16565b90507f01010b5d6c025d0c4cb16706a796168f588300bca2bac066816f536f2c4ceb0d3382600b60003373ffffffffffffffffffffffffffffffffffffffff1673ffffffffffffffffffffffffffffffffffffffff16815260200190815260200160002054604051808473ffffffffffffffffffffffffffffffffffffffff1673ffffffffffffffffffffffffffffffffffffffff168152602001838152602001828152602001935050505060405180910390a16000600b60003373ffffffffffffffffffffffffffffffffffffffff1673ffffffffffffffffffffffffffffffffffffffff168152602001908152602001600020541461117b57600260009054906101000a900473ffffffffffffffffffffffffffffffffffffffff1673ffffffffffffffffffffffffffffffffffffffff166323b872dd3033846040518463ffffffff1660e01b8152600401808473ffffffffffffffffffffffffffffffffffffffff1673ffffffffffffffffffffffffffffffffffffffff1681526020018373ffffffffffffffffffffffffffffffffffffffff1673ffffffffffffffffffffffffffffffffffffffff1681526020018281526020019350505050602060405180830381600087803b15801561101557600080fd5b505af1158015611029573d6000803e3d6000fd5b505050506040513d602081101561103f57600080fd5b81019080805190602001909291905050506110c2576040517f08c379a000000000000000000000000000000000000000000000000000000000815260040180806020018281038252601d8152602001807f7472616e7366657246726f6d28292043544320686173204661696c656400000081525060200191505060405180910390fd5b7fe2cacd9696795caa2d3fe049b4533489e66bc98a6a944ae76bfbb2d1de4d07b73382604051808373ffffffffffffffffffffffffffffffffffffffff1673ffffffffffffffffffffffffffffffffffffffff1681526020018281526020019250505060405180910390a16000600b60003373ffffffffffffffffffffffffffffffffffffffff1673ffffffffffffffffffffffffffffffffffffffff1681526020019081526020016000208190555080915050611181565b60009150505b90565b6000600754905090565b60065481565b6000600354600b60008473ffffffffffffffffffffffffffffffffffffffff1673ffffffffffffffffffffffffffffffffffffffff16815260200190815260200160002054029050919050565b60035481565b6000600854905090565b60045481565b60075481565b600b6020528060005260406000206000915090505481565b6000600160009054906101000a900473ffffffffffffffffffffffffffffffffffffffff1673ffffffffffffffffffffffffffffffffffffffff166318160ddd6040518163ffffffff1660e01b815260040160206040518083038186803b15801561127f57600080fd5b505afa158015611293573d6000803e3d6000fd5b505050506040513d60208110156112a957600080fd5b8101908080519060200190929190505050905090565b60085481565b600160009054906101000a900473ffffffffffffffffffffffffffffffffffffffff1681565b600a60019054906101000a900460ff1681565b6000600954905090565b6000611312611644565b611384576040517f08c379a00000000000000000000000000000000000000000000000000000000081526004018080602001828103825260208152602001807f4f776e61626c653a2063616c6c6572206973206e6f7420746865206f776e657281525060200191505060405180910390fd5b6001600a60006101000a81548160ff0219169083151502179055507fa335a1c1060ac25caf36b1623df502a6074f517189c942acb1a81176401ea9a13342604051808373ffffffffffffffffffffffffffffffffffffffff1673ffffffffffffffffffffffffffffffffffffffff1681526020018281526020019250505060405180910390a16001905090565b6000600454905090565b6000600260009054906101000a900473ffffffffffffffffffffffffffffffffffffffff1673ffffffffffffffffffffffffffffffffffffffff166318160ddd6040518163ffffffff1660e01b815260040160206040518083038186803b15801561148557600080fd5b505afa158015611499573d6000803e3d6000fd5b505050506040513d60208110156114af57600080fd5b8101908080519060200190929190505050905090565b600a60009054906101000a900460ff1681565b6000600354905090565b6114ea611644565b61155c576040517f08c379a00000000000000000000000000000000000000000000000000000000081526004018080602001828103825260208152602001807f4f776e61626c653a2063616c6c6572206973206e6f7420746865206f776e657281525060200191505060405180910390fd5b600073ffffffffffffffffffffffffffffffffffffffff166000809054906101000a900473ffffffffffffffffffffffffffffffffffffffff1673ffffffffffffffffffffffffffffffffffffffff167f8be0079c531659141344cd1fd0a4f28419497f9722a3daafe3b4186f6b6457e060405160405180910390a360008060006101000a81548173ffffffffffffffffffffffffffffffffffffffff021916908373ffffffffffffffffffffffffffffffffffffffff160217905550565b60008060009054906101000a900473ffffffffffffffffffffffffffffffffffffffff16905090565b60008060009054906101000a900473ffffffffffffffffffffffffffffffffffffffff1673ffffffffffffffffffffffffffffffffffffffff163373ffffffffffffffffffffffffffffffffffffffff1614905090565b60055481565b6000600654905090565b60095481565b6000600554905090565b6116c3611644565b611735576040517f08c379a00000000000000000000000000000000000000000000000000000000081526004018080602001828103825260208152602001807f4f776e61626c653a2063616c6c6572206973206e6f7420746865206f776e657281525060200191505060405180910390fd5b61173e81611915565b50565b6000600a60009054906101000a900460ff16905090565b600260009054906101000a900473ffffffffffffffffffffffffffffffffffffffff1681565b6000808284019050838110156117fc576040517f08c379a000000000000000000000000000000000000000000000000000000000815260040180806020018281038252601b8152602001807f536166654d6174683a206164646974696f6e206f766572666c6f77000000000081525060200191505060405180910390fd5b8091505092915050565b60008282111561187e576040517f08c379a000000000000000000000000000000000000000000000000000000000815260040180806020018281038252601e8152602001807f536166654d6174683a207375627472616374696f6e206f766572666c6f77000081525060200191505060405180910390fd5b600082840390508091505092915050565b6000808314156118a2576000905061190f565b60008284029050828482816118b357fe5b041461190a576040517f08c379a0000000000000000000000000000000000000000000000000000000008152600401808060200182810382526021815260200180611b496021913960400191505060405180910390fd5b809150505b92915050565b600073ffffffffffffffffffffffffffffffffffffffff168173ffffffffffffffffffffffffffffffffffffffff16141561199b576040517f08c379a0000000000000000000000000000000000000000000000000000000008152600401808060200182810382526026815260200180611ac96026913960400191505060405180910390fd5b8073ffffffffffffffffffffffffffffffffffffffff166000809054906101000a900473ffffffffffffffffffffffffffffffffffffffff1673ffffffffffffffffffffffffffffffffffffffff167f8be0079c531659141344cd1fd0a4f28419497f9722a3daafe3b4186f6b6457e060405160405180910390a3806000806101000a81548173ffffffffffffffffffffffffffffffffffffffff021916908373ffffffffffffffffffffffffffffffffffffffff1602179055505056fe437573746f6d43726f776473616c6520686173207375636365656420696e2074686520707572737565206f662074686520636f6e747269627574696f6e476f616c437573746f6d43726f776473616c656420627579546f6b656e2829206861732065786365656420746865206361704f776e61626c653a206e6577206f776e657220697320746865207a65726f2061646472657373437573746f6d43726f776473616c652072656c65617365732074686520437573746f6d546f6b656e7320326d696e206166746572636f6e747269627574696f6e20706172616d65746572206d7573742062652061626f76652030536166654d6174683a206d756c7469706c69636174696f6e206f766572666c6f77a165627a7a723058205569ba40b6cae1aa350400cc007af79f9e7c3c66d7775fb33316b57105bad00a0029476f616c2076616c7565206d7573742062652061626f7665206361702056616c756553746172696e6754696d652074696d6520616674657220436c6f73696e6754696d65",
  "source": "// Current Solidity Version\npragma solidity >=0.5.0 <0.6.0;\n\n/*\n * @title Imports\n * Import CustomToken Module from CustomToken.sol\n * Import Ownable Module from cannonical-weth Library\n * Import SafeMath Module from openzeppelin Library\n */\nimport \"./tokens/CustomToken.sol\";\nimport \"canonical-weth/contracts/WETH9.sol\";\nimport \"openzeppelin-solidity/contracts/ownership/Ownable.sol\";\nimport \"openzeppelin-solidity/contracts/math/SafeMath.sol\";\n\n/**\n * @title CustomCrowdsale Params\n * rate - Value Defining the Current Rate for the CustomCrowdsale\n * cap - Value Defining the Current Cap for the CustomCrowdsale\n * WETH9 - Value Defining the Current WETH9 Token for the CustomCrowdsale\n * CustomToken - Value Defining the Current CustomToken for the CustomCrowdsale\n * contributionGoal - Value Defining the Current Goal for the CustomCrowdsale\n * currentContribution - Value Defining currentContribution status for the CustomCrowdsale\n * startingTime - Value Defining the startingTime for the CustomCrowdsale\n * closingTime - Value Defining the closingTime for CustomCrowdsale\n * releaseTime - Value Defining the releaseTime for CustomCrowdsale\n * ICOCompleted - Value Defining the Open/Close status for CustomCrowdsale\n * ICOGoalReached - Value Defining the status for the contributionGoal in CustomCrowdsale\n * contributions - Value Defining the every buy until claim in CustomCrowdsale\n */\ncontract CustomCrowdsale is Ownable {\n    using SafeMath for uint;\n\n    // Tokens To Exchange during the CustomCrowdsale\n    WETH9 public weth9;\n    CustomToken public token;\n\n    // Caracteristics of the CustomCrowdsale\n    uint public rate;\n    uint public cap;\n    uint public contributionGoal;\n    uint public currentContribution = 0 ether;\n\n    // Time Constraint Variables for the CustomCrowdsale\n    uint public startingTime;\n    uint public closingTime;\n    uint public releaseTime;\n\n    // Current Status for the CustomCrowdsale\n    bool public ICOCompleted = false;\n    bool public ICOGoalReached = false;\n\n    // Mapping of the Contributions for the CustomCrowdsale\n    mapping (address => uint) public contributions;\n\n    /**\n      * Events to track during CustomCrowsale operations\n      */\n    event Contribution(address _from, uint _amount);\n    event ClaimContribution(address _from, uint _amount);\n    event CloseCrowdsale(address _from, uint time);\n    event claimContributionPreTx(address _sender, uint _claimedTokens, uint _balance);\n\n    //event claimContributionPostTx();\n    //event openCrowdsale();\n\n    // Setting Up Modifiers evaluating the status Open/Close for the CustomCrowdsale\n    modifier whenICOCompleted {\n        require(ICOCompleted, 'CustomCrowdsale Not Completed');\n        require(now >= releaseTime, 'CustomCrowdsale releases the CustomTokens 2min after');\n        _;\n    }\n\n    modifier whenICONOtCompleted {\n        require(!ICOCompleted, 'CustomCrowdsale Not Completed');\n        require(closingTime >= now, 'CustomCrowdsale releases the CustomTokens 2min after');\n        _;\n    }\n\n    // Close function, only the owner of the CustomCrowdsale can call this function\n    function closeICO() public onlyOwner returns (bool) {\n        ICOCompleted = true;\n        emit CloseCrowdsale(msg.sender, now);\n        return true;\n    }\n\n    // Contract Constructor for CustomCrowdsale\n    // NOTE: Only a contracts with fallback function needs address playable. deposit()\n    constructor(uint _rate, uint _cap, uint _contributionGoal, address payable _wethAddr, address _tokenAddr, uint _staringTime, uint _closingTime, uint _releaseTime) public {\n        rate = _rate;\n        cap = _cap;\n        contributionGoal = _contributionGoal;\n        weth9 = WETH9(_wethAddr);\n        token = CustomToken(_tokenAddr);\n        startingTime = _staringTime;\n        closingTime = _closingTime;\n        releaseTime = _releaseTime;\n\n        /**\n          * Requirements Time constraints, cap, contributionGoal for the Constructor of the CustomCrowdsale\n          */\n        // Requirement startingTime must be after than Now\n        require(startingTime > now, 'StaringTime before Now');\n        // Requirement closingTime must be after startingTime\n        require(closingTime > startingTime, 'StaringTime time after ClosingTime');\n        // Requirement for the Cap constraint\n        require(cap > 0, 'Cap Value must be above 0');\n        // Requirement contributionGoal must be higher than 0\n        require(contributionGoal > 0, 'Goal Value must be above 0');\n        // Requirement contributionGoal must be higher than the Cap\n        require(contributionGoal > cap, 'Goal value must be above cap Value');\n    }\n\n    // hace falta aadir una funcion de fallback para poder cambiar imagino el msg.sender cuando se llama a la funcion.\n    function() external payable {\n        buyToken();\n    }\n\n    // Buy Funtion for the CustomCrowdsale\n    function buyToken() public whenICONOtCompleted payable returns (bool) {\n            uint _contribution = msg.value;\n            // Requirement contribution must be less than the Cap\n            require(_contribution < cap, 'CustomCrowdsaled buyToken() has exceed the cap');\n            // Requirement currentContribution must be less than the contributionGoal\n            require(currentContribution < contributionGoal, 'CustomCrowdsale has succeed in the pursue of the contributionGoal');\n            // Requirement contribution must be higher than 0 in the CustomCrowdsale\n            require(_contribution >= 0,'contribution parameter must be above 0');\n\n            uint aux = 0;\n            aux.add(_contribution);\n            aux.add(currentContribution);\n            // If the current buy does not exceed the cap but overreaches the actual contributionGoal, the tokens left would be sold instead\n            if (aux > contributionGoal) {\n                _contribution = contributionGoal.sub(currentContribution);\n                ICOGoalReached = true;\n            }\n            // Requirement transferForm must be successful\n            require(weth9.transferFrom(msg.sender, address(this), _contribution), \"transferFrom() Wether has Failed\");\n            currentContribution = currentContribution.add(_contribution);\n            contributions[msg.sender] = contributions[msg.sender].add(_contribution);\n            // Emit Current Status Post BuyToken\n            emit Contribution(msg.sender, _contribution);\n            return true;\n    }\n\n    // Claim Function for the CustomCrowdsale\n    function claimContribution() public whenICOCompleted returns (uint) {\n        // Calculate the Exchange Rate\n        uint claimedTokens = contributions[msg.sender].mul(rate);\n        //token.amount = token.amount.sub(claimedTokens);\n        // Emit Current Status Pre Claim\n        emit claimContributionPreTx(msg.sender, claimedTokens, contributions[msg.sender]);\n        if(contributions[msg.sender] != 0) {\n            // Requirement transfer must be successful\n            //require(token.transfer(msg.sender, claimedTokens), \"transfer() CustomTokens has Failed\");\n            require(token.transferFrom(address(this), msg.sender, claimedTokens), \"transferFrom() CTC has Failed\");\n            // Emit Current Status Post Claim\n            emit ClaimContribution(msg.sender, claimedTokens);\n            // Set the contribution of the sender to 0\n            contributions[msg.sender] = 0;\n            return claimedTokens;\n        }\n        return 0;\n    }\n\n    /**\n     * GETTERS\n     */\n\n    // Total Tokens held in the CustomCrowdsale\n    function getTokenTotalSupply() public view returns(uint) {\n        return token.totalSupply();\n    }\n\n    function getTokenToClaim(address contributor) public view returns(uint) {\n        return contributions[contributor] * rate;\n    }\n\n\n    // Total WETH9 held in the CustomCrowdsale\n    function getWethTotalSupply() public view returns (uint) {\n        return weth9.totalSupply();\n    }\n\n    // Current Contributions\n    function getCurrentContribution() public view returns (uint) {\n        return currentContribution;\n    }\n\n    // Current Rate in the CustomCrowdsale\n    function getRate() public view returns (uint) {\n        return rate;\n    }\n\n    // Current Cap in the CustomCrowdsale\n    function getCap() public view returns (uint) {\n        return cap;\n    }\n\n    // Current Goal in the CustomCrowdsale\n    function getGoal() public view returns (uint) {\n        return contributionGoal;\n    }\n\n    // Current Completed Status in the CustomCrowdsale\n    function isCompleted() public view returns (bool) {\n        return ICOCompleted;\n    }\n\n    // Current Starting Time in the CustomCrowdsale\n    function getStartingTime() public view returns (uint) {\n        return startingTime;\n    }\n\n    // Current ClosingTime in the CustomCrowdsale\n    function getClosingTime() public view returns (uint) {\n        return closingTime;\n    }\n\n    // Current ReleaseTime in the CustomCrowdsale\n    function getReleaseTime() public view returns (uint) {\n        return releaseTime;\n    }\n}\n",
  "sourcePath": "/home/asigan/Github_Projects/GnosisOnboardingCrowdsale/contracts/CustomCrowdsale.sol",
  "compiler": {
    "name": "solc",
    "version": "0.5.8+commit.23d335f2.Emscripten.clang"
  },
  "schemaVersion": "3.0.16",
  "updatedAt": "2019-11-06T09:43:47.051Z",
  "devdoc": {
    "methods": {
      "isOwner()": {
        "details": "Returns true if the caller is the current owner."
      },
      "owner()": {
        "details": "Returns the address of the current owner."
      },
      "renounceOwnership()": {
        "details": "Leaves the contract without owner. It will not be possible to call `onlyOwner` functions anymore. Can only be called by the current owner.     * > Note: Renouncing ownership will leave the contract without an owner, thereby removing any functionality that is only available to the owner."
      },
      "transferOwnership(address)": {
        "details": "Transfers ownership of the contract to a new account (`newOwner`). Can only be called by the current owner."
      }
    },
    "title": "CustomCrowdsale Params rate - Value Defining the Current Rate for the CustomCrowdsale cap - Value Defining the Current Cap for the CustomCrowdsale WETH9 - Value Defining the Current WETH9 Token for the CustomCrowdsale CustomToken - Value Defining the Current CustomToken for the CustomCrowdsale contributionGoal - Value Defining the Current Goal for the CustomCrowdsale currentContribution - Value Defining currentContribution status for the CustomCrowdsale startingTime - Value Defining the startingTime for the CustomCrowdsale closingTime - Value Defining the closingTime for CustomCrowdsale releaseTime - Value Defining the releaseTime for CustomCrowdsale ICOCompleted - Value Defining the Open/Close status for CustomCrowdsale ICOGoalReached - Value Defining the status for the contributionGoal in CustomCrowdsale contributions - Value Defining the every buy until claim in CustomCrowdsale"
  },
  "userdoc": {
    "methods": {
      "getTokenTotalSupply()": {
        "notice": "GETTERS"
      }
    }
  }
}