{
  "contractName": "CustomCrowdsale",
  "abi": [
    {
      "constant": true,
      "inputs": [],
      "name": "currentContribution",
      "outputs": [
        {
          "name": "",
          "type": "uint256"
        }
      ],
      "payable": false,
      "stateMutability": "view",
      "type": "function"
    },
    {
      "constant": true,
      "inputs": [],
      "name": "rate",
      "outputs": [
        {
          "name": "",
          "type": "uint256"
        }
      ],
      "payable": false,
      "stateMutability": "view",
      "type": "function"
    },
    {
      "constant": true,
      "inputs": [],
      "name": "cap",
      "outputs": [
        {
          "name": "",
          "type": "uint256"
        }
      ],
      "payable": false,
      "stateMutability": "view",
      "type": "function"
    },
    {
      "constant": true,
      "inputs": [],
      "name": "startingTime",
      "outputs": [
        {
          "name": "",
          "type": "uint256"
        }
      ],
      "payable": false,
      "stateMutability": "view",
      "type": "function"
    },
    {
      "constant": true,
      "inputs": [
        {
          "name": "",
          "type": "address"
        }
      ],
      "name": "contributions",
      "outputs": [
        {
          "name": "",
          "type": "uint256"
        }
      ],
      "payable": false,
      "stateMutability": "view",
      "type": "function"
    },
    {
      "constant": true,
      "inputs": [],
      "name": "closingTime",
      "outputs": [
        {
          "name": "",
          "type": "uint256"
        }
      ],
      "payable": false,
      "stateMutability": "view",
      "type": "function"
    },
    {
      "constant": true,
      "inputs": [],
      "name": "weth9",
      "outputs": [
        {
          "name": "",
          "type": "address"
        }
      ],
      "payable": false,
      "stateMutability": "view",
      "type": "function"
    },
    {
      "constant": true,
      "inputs": [],
      "name": "ICOGoalReached",
      "outputs": [
        {
          "name": "",
          "type": "bool"
        }
      ],
      "payable": false,
      "stateMutability": "view",
      "type": "function"
    },
    {
      "constant": true,
      "inputs": [],
      "name": "ICOCompleted",
      "outputs": [
        {
          "name": "",
          "type": "bool"
        }
      ],
      "payable": false,
      "stateMutability": "view",
      "type": "function"
    },
    {
      "constant": false,
      "inputs": [],
      "name": "renounceOwnership",
      "outputs": [],
      "payable": false,
      "stateMutability": "nonpayable",
      "type": "function"
    },
    {
      "constant": true,
      "inputs": [],
      "name": "owner",
      "outputs": [
        {
          "name": "",
          "type": "address"
        }
      ],
      "payable": false,
      "stateMutability": "view",
      "type": "function"
    },
    {
      "constant": true,
      "inputs": [],
      "name": "isOwner",
      "outputs": [
        {
          "name": "",
          "type": "bool"
        }
      ],
      "payable": false,
      "stateMutability": "view",
      "type": "function"
    },
    {
      "constant": true,
      "inputs": [],
      "name": "contributionGoal",
      "outputs": [
        {
          "name": "",
          "type": "uint256"
        }
      ],
      "payable": false,
      "stateMutability": "view",
      "type": "function"
    },
    {
      "constant": true,
      "inputs": [],
      "name": "releaseTime",
      "outputs": [
        {
          "name": "",
          "type": "uint256"
        }
      ],
      "payable": false,
      "stateMutability": "view",
      "type": "function"
    },
    {
      "constant": false,
      "inputs": [
        {
          "name": "newOwner",
          "type": "address"
        }
      ],
      "name": "transferOwnership",
      "outputs": [],
      "payable": false,
      "stateMutability": "nonpayable",
      "type": "function"
    },
    {
      "constant": true,
      "inputs": [],
      "name": "token",
      "outputs": [
        {
          "name": "",
          "type": "address"
        }
      ],
      "payable": false,
      "stateMutability": "view",
      "type": "function"
    },
    {
      "inputs": [
        {
          "name": "_rate",
          "type": "uint256"
        },
        {
          "name": "_cap",
          "type": "uint256"
        },
        {
          "name": "_contributionGoal",
          "type": "uint256"
        },
        {
          "name": "_wethAddr",
          "type": "address"
        },
        {
          "name": "_tokenAddr",
          "type": "address"
        },
        {
          "name": "_staringTime",
          "type": "uint256"
        },
        {
          "name": "_closingTime",
          "type": "uint256"
        },
        {
          "name": "_releaseTime",
          "type": "uint256"
        }
      ],
      "payable": false,
      "stateMutability": "nonpayable",
      "type": "constructor"
    },
    {
      "anonymous": false,
      "inputs": [
        {
          "indexed": false,
          "name": "_from",
          "type": "address"
        },
        {
          "indexed": false,
          "name": "_amount",
          "type": "uint256"
        }
      ],
      "name": "Contribution",
      "type": "event"
    },
    {
      "anonymous": false,
      "inputs": [
        {
          "indexed": false,
          "name": "_from",
          "type": "address"
        },
        {
          "indexed": false,
          "name": "_amount",
          "type": "uint256"
        }
      ],
      "name": "ClaimContribution",
      "type": "event"
    },
    {
      "anonymous": false,
      "inputs": [
        {
          "indexed": false,
          "name": "_from",
          "type": "address"
        },
        {
          "indexed": false,
          "name": "time",
          "type": "uint256"
        }
      ],
      "name": "CloseCrowdsale",
      "type": "event"
    },
    {
      "anonymous": false,
      "inputs": [
        {
          "indexed": false,
          "name": "_sender",
          "type": "address"
        },
        {
          "indexed": false,
          "name": "_claimedTokens",
          "type": "uint256"
        },
        {
          "indexed": false,
          "name": "_balance",
          "type": "uint256"
        }
      ],
      "name": "claimContributionPreTx",
      "type": "event"
    },
    {
      "anonymous": false,
      "inputs": [
        {
          "indexed": true,
          "name": "previousOwner",
          "type": "address"
        },
        {
          "indexed": true,
          "name": "newOwner",
          "type": "address"
        }
      ],
      "name": "OwnershipTransferred",
      "type": "event"
    },
    {
      "constant": false,
      "inputs": [],
      "name": "closeICO",
      "outputs": [
        {
          "name": "",
          "type": "bool"
        }
      ],
      "payable": false,
      "stateMutability": "nonpayable",
      "type": "function"
    },
    {
      "constant": false,
      "inputs": [
        {
          "name": "_contribution",
          "type": "uint256"
        }
      ],
      "name": "buyToken",
      "outputs": [
        {
          "name": "",
          "type": "bool"
        }
      ],
      "payable": false,
      "stateMutability": "nonpayable",
      "type": "function"
    },
    {
      "constant": false,
      "inputs": [],
      "name": "claimContribution",
      "outputs": [
        {
          "name": "",
          "type": "bool"
        }
      ],
      "payable": false,
      "stateMutability": "nonpayable",
      "type": "function"
    },
    {
      "constant": true,
      "inputs": [],
      "name": "getTokenTotalSupply",
      "outputs": [
        {
          "name": "",
          "type": "uint256"
        }
      ],
      "payable": false,
      "stateMutability": "view",
      "type": "function"
    },
    {
      "constant": true,
      "inputs": [],
      "name": "getWethTotalSupply",
      "outputs": [
        {
          "name": "",
          "type": "uint256"
        }
      ],
      "payable": false,
      "stateMutability": "view",
      "type": "function"
    },
    {
      "constant": true,
      "inputs": [],
      "name": "getCurrentContribution",
      "outputs": [
        {
          "name": "",
          "type": "uint256"
        }
      ],
      "payable": false,
      "stateMutability": "view",
      "type": "function"
    },
    {
      "constant": true,
      "inputs": [],
      "name": "getRate",
      "outputs": [
        {
          "name": "",
          "type": "uint256"
        }
      ],
      "payable": false,
      "stateMutability": "view",
      "type": "function"
    },
    {
      "constant": true,
      "inputs": [],
      "name": "getCap",
      "outputs": [
        {
          "name": "",
          "type": "uint256"
        }
      ],
      "payable": false,
      "stateMutability": "view",
      "type": "function"
    },
    {
      "constant": true,
      "inputs": [],
      "name": "getGoal",
      "outputs": [
        {
          "name": "",
          "type": "uint256"
        }
      ],
      "payable": false,
      "stateMutability": "view",
      "type": "function"
    },
    {
      "constant": true,
      "inputs": [],
      "name": "isCompleted",
      "outputs": [
        {
          "name": "",
          "type": "bool"
        }
      ],
      "payable": false,
      "stateMutability": "view",
      "type": "function"
    },
    {
      "constant": true,
      "inputs": [],
      "name": "getStartingTime",
      "outputs": [
        {
          "name": "",
          "type": "uint256"
        }
      ],
      "payable": false,
      "stateMutability": "view",
      "type": "function"
    },
    {
      "constant": true,
      "inputs": [],
      "name": "getClosingTime",
      "outputs": [
        {
          "name": "",
          "type": "uint256"
        }
      ],
      "payable": false,
      "stateMutability": "view",
      "type": "function"
    },
    {
      "constant": true,
      "inputs": [],
      "name": "getReleaseTime",
      "outputs": [
        {
          "name": "",
          "type": "uint256"
        }
      ],
      "payable": false,
      "stateMutability": "view",
      "type": "function"
    }
  ],
  "bytecode": "0x608060405260006006556000600a60006101000a81548160ff0219169083151502179055506000600a60016101000a81548160ff02191690831515021790555034801561004b57600080fd5b5060405161010080611d16833981018060405261010081101561006d57600080fd5b810190808051906020019092919080519060200190929190805190602001909291908051906020019092919080519060200190929190805190602001909291908051906020019092919080519060200190929190505050336000806101000a81548173ffffffffffffffffffffffffffffffffffffffff021916908373ffffffffffffffffffffffffffffffffffffffff1602179055506000809054906101000a900473ffffffffffffffffffffffffffffffffffffffff1673ffffffffffffffffffffffffffffffffffffffff16600073ffffffffffffffffffffffffffffffffffffffff167f8be0079c531659141344cd1fd0a4f28419497f9722a3daafe3b4186f6b6457e060405160405180910390a387600381905550866004819055508560058190555084600160006101000a81548173ffffffffffffffffffffffffffffffffffffffff021916908373ffffffffffffffffffffffffffffffffffffffff16021790555083600260006101000a81548173ffffffffffffffffffffffffffffffffffffffff021916908373ffffffffffffffffffffffffffffffffffffffff16021790555082600781905550816008819055508060098190555042600754116102a3576040517f08c379a00000000000000000000000000000000000000000000000000000000081526004018080602001828103825260168152602001807f53746172696e6754696d65206265666f7265204e6f770000000000000000000081525060200191505060405180910390fd5b600754600854116102ff576040517f08c379a0000000000000000000000000000000000000000000000000000000008152600401808060200182810382526022815260200180611cf46022913960400191505060405180910390fd5b600060045411610377576040517f08c379a00000000000000000000000000000000000000000000000000000000081526004018080602001828103825260198152602001807f4361702056616c7565206d7573742062652061626f766520300000000000000081525060200191505060405180910390fd5b6000600554116103ef576040517f08c379a000000000000000000000000000000000000000000000000000000000815260040180806020018281038252601a8152602001807f476f616c2056616c7565206d7573742062652061626f7665203000000000000081525060200191505060405180910390fd5b6004546005541161044b576040517f08c379a0000000000000000000000000000000000000000000000000000000008152600401808060200182810382526022815260200180611cd26022913960400191505060405180910390fd5b5050505050505050611870806104626000396000f3fe608060405234801561001057600080fd5b50600436106101cf5760003560e01c806354238645116101045780638f32d59b116100a2578063b97a7d2411610071578063b97a7d241461057c578063f2fde38b1461059a578063fa391c64146105de578063fc0c546a14610600576101cf565b80638f32d59b14610500578063ad477c4714610522578063b8623d5314610540578063b91d40011461055e576101cf565b806363a44262116100de57806363a442621461046c578063679aefce1461048e578063715018a6146104ac5780638da5cb5b146104b6576101cf565b8063542386451461040e578063554d578d1461043057806357df844b1461044e576101cf565b806339518b5e116101715780634b6753bc1161014b5780634b6753bc1461036657806350879c1c14610384578063529fc11e146103ce57806353462d6b146103f0576101cf565b806339518b5e146102d257806342e94c90146102f057806343a42c2f14610348576101cf565b80632c4e722e116101ad5780632c4e722e146102325780632d296bf1146102505780632f9cb9aa14610296578063355274ea146102b4576101cf565b80630114a690146101d45780630dc0c971146101f6578063111961f814610214575b600080fd5b6101dc61064a565b604051808215151515815260200191505060405180910390f35b6101fe610a76565b6040518082815260200191505060405180910390f35b61021c610a80565b6040518082815260200191505060405180910390f35b61023a610a86565b6040518082815260200191505060405180910390f35b61027c6004803603602081101561026657600080fd5b8101908080359060200190929190505050610a8c565b604051808215151515815260200191505060405180910390f35b61029e610ea0565b6040518082815260200191505060405180910390f35b6102bc610eaa565b6040518082815260200191505060405180910390f35b6102da610eb0565b6040518082815260200191505060405180910390f35b6103326004803603602081101561030657600080fd5b81019080803573ffffffffffffffffffffffffffffffffffffffff169060200190929190505050610eb6565b6040518082815260200191505060405180910390f35b610350610ece565b6040518082815260200191505060405180910390f35b61036e610f78565b6040518082815260200191505060405180910390f35b61038c610f7e565b604051808273ffffffffffffffffffffffffffffffffffffffff1673ffffffffffffffffffffffffffffffffffffffff16815260200191505060405180910390f35b6103d6610fa4565b604051808215151515815260200191505060405180910390f35b6103f8610fb7565b6040518082815260200191505060405180910390f35b610416610fc1565b604051808215151515815260200191505060405180910390f35b6104386110ca565b6040518082815260200191505060405180910390f35b6104566110d4565b6040518082815260200191505060405180910390f35b61047461117e565b604051808215151515815260200191505060405180910390f35b610496611191565b6040518082815260200191505060405180910390f35b6104b461119b565b005b6104be6112d4565b604051808273ffffffffffffffffffffffffffffffffffffffff1673ffffffffffffffffffffffffffffffffffffffff16815260200191505060405180910390f35b6105086112fd565b604051808215151515815260200191505060405180910390f35b61052a611354565b6040518082815260200191505060405180910390f35b61054861135a565b6040518082815260200191505060405180910390f35b610566611364565b6040518082815260200191505060405180910390f35b61058461136a565b6040518082815260200191505060405180910390f35b6105dc600480360360208110156105b057600080fd5b81019080803573ffffffffffffffffffffffffffffffffffffffff169060200190929190505050611374565b005b6105e66113fa565b604051808215151515815260200191505060405180910390f35b610608611411565b604051808273ffffffffffffffffffffffffffffffffffffffff1673ffffffffffffffffffffffffffffffffffffffff16815260200191505060405180910390f35b6000600a60009054906101000a900460ff166106ce576040517f08c379a000000000000000000000000000000000000000000000000000000000815260040180806020018281038252601d8152602001807f437573746f6d43726f776473616c65204e6f7420436f6d706c6574656400000081525060200191505060405180910390fd5b600954421015610729576040517f08c379a00000000000000000000000000000000000000000000000000000000081526004018080602001828103825260348152602001806117ca6034913960400191505060405180910390fd5b600061077f600354600b60003373ffffffffffffffffffffffffffffffffffffffff1673ffffffffffffffffffffffffffffffffffffffff1681526020019081526020016000205461143790919063ffffffff16565b90507f01010b5d6c025d0c4cb16706a796168f588300bca2bac066816f536f2c4ceb0d3382600b60003373ffffffffffffffffffffffffffffffffffffffff1673ffffffffffffffffffffffffffffffffffffffff16815260200190815260200160002054604051808473ffffffffffffffffffffffffffffffffffffffff1673ffffffffffffffffffffffffffffffffffffffff168152602001838152602001828152602001935050505060405180910390a16000600b60003373ffffffffffffffffffffffffffffffffffffffff1673ffffffffffffffffffffffffffffffffffffffff1681526020019081526020016000205414610a6d57600260009054906101000a900473ffffffffffffffffffffffffffffffffffffffff1673ffffffffffffffffffffffffffffffffffffffff1663a9059cbb33836040518363ffffffff1660e01b8152600401808373ffffffffffffffffffffffffffffffffffffffff1673ffffffffffffffffffffffffffffffffffffffff16815260200182815260200192505050602060405180830381600087803b15801561092357600080fd5b505af1158015610937573d6000803e3d6000fd5b505050506040513d602081101561094d57600080fd5b81019080805190602001909291905050506109b3576040517f08c379a00000000000000000000000000000000000000000000000000000000081526004018080602001828103825260228152602001806117a86022913960400191505060405180910390fd5b7fe2cacd9696795caa2d3fe049b4533489e66bc98a6a944ae76bfbb2d1de4d07b73382604051808373ffffffffffffffffffffffffffffffffffffffff1673ffffffffffffffffffffffffffffffffffffffff1681526020018281526020019250505060405180910390a16000600b60003373ffffffffffffffffffffffffffffffffffffffff1673ffffffffffffffffffffffffffffffffffffffff168152602001908152602001600020819055506001915050610a73565b60009150505b90565b6000600754905090565b60065481565b60035481565b60006004548210610ae8576040517f08c379a000000000000000000000000000000000000000000000000000000000815260040180806020018281038252602e815260200180611754602e913960400191505060405180910390fd5b60055460065410610b44576040517f08c379a00000000000000000000000000000000000000000000000000000000081526004018080602001828103825260418152602001806117136041913960600191505060405180910390fd5b6000821015610b9e576040517f08c379a00000000000000000000000000000000000000000000000000000000081526004018080602001828103825260268152602001806117fe6026913960400191505060405180910390fd5b6000809050610bb683826114bd90919063ffffffff16565b50610bcc600654826114bd90919063ffffffff16565b50600554811115610bf157610bee60065460055461154590919063ffffffff16565b92505b600160009054906101000a900473ffffffffffffffffffffffffffffffffffffffff1673ffffffffffffffffffffffffffffffffffffffff166323b872dd3330866040518463ffffffff1660e01b8152600401808473ffffffffffffffffffffffffffffffffffffffff1673ffffffffffffffffffffffffffffffffffffffff1681526020018373ffffffffffffffffffffffffffffffffffffffff1673ffffffffffffffffffffffffffffffffffffffff1681526020018281526020019350505050602060405180830381600087803b158015610cce57600080fd5b505af1158015610ce2573d6000803e3d6000fd5b505050506040513d6020811015610cf857600080fd5b8101908080519060200190929190505050610d7b576040517f08c379a00000000000000000000000000000000000000000000000000000000081526004018080602001828103825260208152602001807f7472616e7366657246726f6d28292057657468657220686173204661696c656481525060200191505060405180910390fd5b610d90836006546114bd90919063ffffffff16565b600681905550610de883600b60003373ffffffffffffffffffffffffffffffffffffffff1673ffffffffffffffffffffffffffffffffffffffff168152602001908152602001600020546114bd90919063ffffffff16565b600b60003373ffffffffffffffffffffffffffffffffffffffff1673ffffffffffffffffffffffffffffffffffffffff168152602001908152602001600020819055507f4d154d4aae216bed6d0926db77c00df2b57c6b5ba4eee05775de20facede3a7b3384604051808373ffffffffffffffffffffffffffffffffffffffff1673ffffffffffffffffffffffffffffffffffffffff1681526020018281526020019250505060405180910390a16001915050919050565b6000600854905090565b60045481565b60075481565b600b6020528060005260406000206000915090505481565b6000600160009054906101000a900473ffffffffffffffffffffffffffffffffffffffff1673ffffffffffffffffffffffffffffffffffffffff166318160ddd6040518163ffffffff1660e01b815260040160206040518083038186803b158015610f3857600080fd5b505afa158015610f4c573d6000803e3d6000fd5b505050506040513d6020811015610f6257600080fd5b8101908080519060200190929190505050905090565b60085481565b600160009054906101000a900473ffffffffffffffffffffffffffffffffffffffff1681565b600a60019054906101000a900460ff1681565b6000600954905090565b6000610fcb6112fd565b61103d576040517f08c379a00000000000000000000000000000000000000000000000000000000081526004018080602001828103825260208152602001807f4f776e61626c653a2063616c6c6572206973206e6f7420746865206f776e657281525060200191505060405180910390fd5b6001600a60006101000a81548160ff0219169083151502179055507fa335a1c1060ac25caf36b1623df502a6074f517189c942acb1a81176401ea9a13342604051808373ffffffffffffffffffffffffffffffffffffffff1673ffffffffffffffffffffffffffffffffffffffff1681526020018281526020019250505060405180910390a16001905090565b6000600454905090565b6000600260009054906101000a900473ffffffffffffffffffffffffffffffffffffffff1673ffffffffffffffffffffffffffffffffffffffff166318160ddd6040518163ffffffff1660e01b815260040160206040518083038186803b15801561113e57600080fd5b505afa158015611152573d6000803e3d6000fd5b505050506040513d602081101561116857600080fd5b8101908080519060200190929190505050905090565b600a60009054906101000a900460ff1681565b6000600354905090565b6111a36112fd565b611215576040517f08c379a00000000000000000000000000000000000000000000000000000000081526004018080602001828103825260208152602001807f4f776e61626c653a2063616c6c6572206973206e6f7420746865206f776e657281525060200191505060405180910390fd5b600073ffffffffffffffffffffffffffffffffffffffff166000809054906101000a900473ffffffffffffffffffffffffffffffffffffffff1673ffffffffffffffffffffffffffffffffffffffff167f8be0079c531659141344cd1fd0a4f28419497f9722a3daafe3b4186f6b6457e060405160405180910390a360008060006101000a81548173ffffffffffffffffffffffffffffffffffffffff021916908373ffffffffffffffffffffffffffffffffffffffff160217905550565b60008060009054906101000a900473ffffffffffffffffffffffffffffffffffffffff16905090565b60008060009054906101000a900473ffffffffffffffffffffffffffffffffffffffff1673ffffffffffffffffffffffffffffffffffffffff163373ffffffffffffffffffffffffffffffffffffffff1614905090565b60055481565b6000600654905090565b60095481565b6000600554905090565b61137c6112fd565b6113ee576040517f08c379a00000000000000000000000000000000000000000000000000000000081526004018080602001828103825260208152602001807f4f776e61626c653a2063616c6c6572206973206e6f7420746865206f776e657281525060200191505060405180910390fd5b6113f7816115ce565b50565b6000600a60009054906101000a900460ff16905090565b600260009054906101000a900473ffffffffffffffffffffffffffffffffffffffff1681565b60008083141561144a57600090506114b7565b600082840290508284828161145b57fe5b04146114b2576040517f08c379a00000000000000000000000000000000000000000000000000000000081526004018080602001828103825260218152602001806118246021913960400191505060405180910390fd5b809150505b92915050565b60008082840190508381101561153b576040517f08c379a000000000000000000000000000000000000000000000000000000000815260040180806020018281038252601b8152602001807f536166654d6174683a206164646974696f6e206f766572666c6f77000000000081525060200191505060405180910390fd5b8091505092915050565b6000828211156115bd576040517f08c379a000000000000000000000000000000000000000000000000000000000815260040180806020018281038252601e8152602001807f536166654d6174683a207375627472616374696f6e206f766572666c6f77000081525060200191505060405180910390fd5b600082840390508091505092915050565b600073ffffffffffffffffffffffffffffffffffffffff168173ffffffffffffffffffffffffffffffffffffffff161415611654576040517f08c379a00000000000000000000000000000000000000000000000000000000081526004018080602001828103825260268152602001806117826026913960400191505060405180910390fd5b8073ffffffffffffffffffffffffffffffffffffffff166000809054906101000a900473ffffffffffffffffffffffffffffffffffffffff1673ffffffffffffffffffffffffffffffffffffffff167f8be0079c531659141344cd1fd0a4f28419497f9722a3daafe3b4186f6b6457e060405160405180910390a3806000806101000a81548173ffffffffffffffffffffffffffffffffffffffff021916908373ffffffffffffffffffffffffffffffffffffffff1602179055505056fe437573746f6d43726f776473616c6520686173207375636365656420696e2074686520707572737565206f662074686520636f6e747269627574696f6e476f616c437573746f6d43726f776473616c656420627579546f6b656e2829206861732065786365656420746865206361704f776e61626c653a206e6577206f776e657220697320746865207a65726f20616464726573737472616e73666572282920437573746f6d546f6b656e7320686173204661696c6564437573746f6d43726f776473616c652072656c65617365732074686520437573746f6d546f6b656e7320326d696e206166746572636f6e747269627574696f6e20706172616d65746572206d7573742062652061626f76652030536166654d6174683a206d756c7469706c69636174696f6e206f766572666c6f77a165627a7a723058209c68b90d7055adca5b0791fb5814864138cb685de0e07fe7fd91cb69325889b20029476f616c2076616c7565206d7573742062652061626f7665206361702056616c756553746172696e6754696d652074696d6520616674657220436c6f73696e6754696d65",
  "source": "// Current Solidity Version\npragma solidity >=0.5.0 <0.6.0;\n\n/*\n * @title Imports\n * Import CustomToken Module from CustomToken.sol\n * Import Ownable Module from cannonical-weth Library\n * Import SafeMath Module from openzeppelin Library\n */\nimport \"./tokens/CustomToken.sol\";\nimport \"canonical-weth/contracts/WETH9.sol\";\nimport \"openzeppelin-solidity/contracts/ownership/Ownable.sol\";\nimport \"openzeppelin-solidity/contracts/math/SafeMath.sol\";\n\n/**\n * @title CustomCrowdsale Params\n * rate - Value Defining the Current Rate for the CustomCrowdsale\n * cap - Value Defining the Current Cap for the CustomCrowdsale\n * WETH9 - Value Defining the Current WETH9 Token for the CustomCrowdsale\n * CustomToken - Value Defining the Current CustomToken for the CustomCrowdsale\n * contributionGoal - Value Defining the Current Goal for the CustomCrowdsale\n * currentContribution - Value Defining currentContribution status for the CustomCrowdsale\n * startingTime - Value Defining the startingTime for the CustomCrowdsale\n * closingTime - Value Defining the closingTime for CustomCrowdsale\n * releaseTime - Value Defining the releaseTime for CustomCrowdsale\n * ICOCompleted - Value Defining the Open/Close status for CustomCrowdsale\n * ICOGoalReached - Value Defining the status for the contributionGoal in CustomCrowdsale\n * contributions - Value Defining the every buy until claim in CustomCrowdsale\n */\ncontract CustomCrowdsale is Ownable {\n    using SafeMath for uint256;\n\n    // Tokens To Exchange during the CustomCrowdsale\n    WETH9 public weth9;\n    CustomToken public token;\n\n    // Caracteristics of the CustomCrowdsale\n    uint256 public rate;\n    uint256 public cap;\n    uint256 public contributionGoal;\n    uint256 public currentContribution = 0;\n\n    // Time Constraint Variables for the CustomCrowdsale\n    uint256 public startingTime;\n    uint256 public closingTime;\n    uint256 public releaseTime;\n\n    // Current Status for the CustomCrowdsale\n    bool public ICOCompleted = false;\n    bool public ICOGoalReached = false;\n\n    // Mapping of the Contributions for the CustomCrowdsale\n    mapping (address => uint256) public contributions;\n\n    /**\n      * Events to track during CustomCrowsale operations\n      */\n    event Contribution(address _from, uint256 _amount);\n    event ClaimContribution(address _from, uint256 _amount);\n    event CloseCrowdsale(address _from, uint256 time);\n    event claimContributionPreTx(address _sender, uint256 _claimedTokens, uint256 _balance);\n\n    //event claimContributionPostTx();\n    //event openCrowdsale();\n\n    // Setting Up Modifiers evaluating the status Open/Close for the CustomCrowdsale\n    modifier whenICOCompleted {\n        require(ICOCompleted, 'CustomCrowdsale Not Completed');\n        require(now >= releaseTime, 'CustomCrowdsale releases the CustomTokens 2min after');\n        _;\n    }\n\n    // Close function, only the owner of the CustomCrowdsale can call this function\n    function closeICO() public onlyOwner returns (bool) {\n        ICOCompleted = true;\n        emit CloseCrowdsale(msg.sender, now);\n        return true;\n    }\n\n    // Contract Constructor for CustomCrowdsale\n    // NOTE: Only a contracts with fallback function needs address playable. deposit()\n    constructor(uint256 _rate, uint256 _cap, uint256 _contributionGoal, address payable _wethAddr, address _tokenAddr, uint256 _staringTime, uint256 _closingTime, uint256 _releaseTime) public {\n        rate = _rate;\n        cap = _cap;\n        contributionGoal = _contributionGoal;\n        weth9 = WETH9(_wethAddr);\n        token = CustomToken(_tokenAddr);\n        startingTime = _staringTime;\n        closingTime = _closingTime;\n        releaseTime = _releaseTime;\n\n        /**\n          * Requirements Time constraints, cap, contributionGoal for the Constructor of the CustomCrowdsale\n          */\n        // Requirement startingTime must be after than Now\n        require(startingTime > now, 'StaringTime before Now');\n        // Requirement closingTime must be after startingTime\n        require(closingTime > startingTime, 'StaringTime time after ClosingTime');\n        // Requirement for the Cap constraint\n        require(cap > 0, 'Cap Value must be above 0');\n        // Requirement contributionGoal must be higher than 0\n        require(contributionGoal > 0, 'Goal Value must be above 0');\n        // Requirement contributionGoal must be higher than the Cap\n        require(contributionGoal > cap, 'Goal value must be above cap Value');\n    }\n\n    // hace falta aadir una funcion de fallback para poder cambiar imagino el msg.sender cuando se llama a la funcion.\n\n    // Buy Funtion for the CustomCrowdsale\n    function buyToken(uint256 _contribution) public returns (bool) {\n        // Requirement contribution must be less than the Cap\n        require(_contribution < cap, 'CustomCrowdsaled buyToken() has exceed the cap');\n        // Requirement currentContribution must be less than the contributionGoal\n        require(currentContribution < contributionGoal, 'CustomCrowdsale has succeed in the pursue of the contributionGoal');\n        // Requirement contribution must be higher than 0 in the CustomCrowdsale\n        require(_contribution >= 0,'contribution parameter must be above 0');\n\n        uint256 aux = 0;\n        aux.add(_contribution);\n        aux.add(currentContribution);\n        // If the current buy does not exceed the cap but overreaches the actual contributionGoal, the tokens left would be sold instead\n        if (aux > contributionGoal) {\n            _contribution = contributionGoal.sub(currentContribution);\n        }\n        // Requirement transferForm must be successful\n        require(weth9.transferFrom(msg.sender, address(this), _contribution), \"transferFrom() Wether has Failed\");\n        currentContribution = currentContribution.add(_contribution);\n        contributions[msg.sender] = contributions[msg.sender].add(_contribution);\n        // Emit Current Status Post BuyToken\n        emit Contribution(msg.sender, _contribution);\n        return true;\n    }\n\n    // Claim Function for the CustomCrowdsale\n    function claimContribution() public whenICOCompleted returns (bool) {\n        // Calculate the Exchange Rate\n        uint256 claimedTokens = contributions[msg.sender].mul(rate);\n        // Emit Current Status Pre Claim\n        emit claimContributionPreTx(msg.sender, claimedTokens, contributions[msg.sender]);\n        if(contributions[msg.sender] != 0) {\n            // Requirement transfer must be successful\n            require(token.transfer(msg.sender, claimedTokens), \"transfer() CustomTokens has Failed\");\n            // Emit Current Status Post Claim\n            emit ClaimContribution(msg.sender, claimedTokens);\n            // Set the contribution of the sender to 0\n            contributions[msg.sender] = 0;\n            return true;\n        }\n        return false;\n    }\n\n    /**\n     * GETTERS\n     */\n\n    // Total Tokens held in the CustomCrowdsale\n    function getTokenTotalSupply() public view returns(uint256) {\n        return token.totalSupply();\n    }\n\n    // Total WETH9 held in the CustomCrowdsale\n    function getWethTotalSupply() public view returns (uint256) {\n        return weth9.totalSupply();\n    }\n\n    // Current Contributions\n    function getCurrentContribution() public view returns (uint256) {\n        return currentContribution;\n    }\n\n    // Current Rate in the CustomCrowdsale\n    function getRate() public view returns (uint256) {\n        return rate;\n    }\n\n    // Current Cap in the CustomCrowdsale\n    function getCap() public view returns (uint256) {\n        return cap;\n    }\n\n    // Current Goal in the CustomCrowdsale\n    function getGoal() public view returns (uint256) {\n        return contributionGoal;\n    }\n\n    // Current Completed Status in the CustomCrowdsale\n    function isCompleted() public view returns (bool) {\n        return ICOCompleted;\n    }\n\n    // Current Starting Time in the CustomCrowdsale\n    function getStartingTime() public view returns (uint256) {\n        return startingTime;\n    }\n\n    // Current ClosingTime in the CustomCrowdsale\n    function getClosingTime() public view returns (uint256) {\n        return closingTime;\n    }\n\n    // Current ReleaseTime in the CustomCrowdsale\n    function getReleaseTime() public view returns (uint256) {\n        return releaseTime;\n    }\n}\n",
  "sourcePath": "/home/asigan/Github_Projects/EthereumPARTokenCrowdSale/contracts/CustomCrowdsale.sol",
  "compiler": {
    "name": "solc",
    "version": "0.5.8+commit.23d335f2.Emscripten.clang"
  },
  "schemaVersion": "3.0.16",
  "updatedAt": "2019-10-29T15:21:09.850Z",
  "devdoc": {
    "methods": {
      "isOwner()": {
        "details": "Returns true if the caller is the current owner."
      },
      "owner()": {
        "details": "Returns the address of the current owner."
      },
      "renounceOwnership()": {
        "details": "Leaves the contract without owner. It will not be possible to call `onlyOwner` functions anymore. Can only be called by the current owner.     * > Note: Renouncing ownership will leave the contract without an owner, thereby removing any functionality that is only available to the owner."
      },
      "transferOwnership(address)": {
        "details": "Transfers ownership of the contract to a new account (`newOwner`). Can only be called by the current owner."
      }
    },
    "title": "CustomCrowdsale Params rate - Value Defining the Current Rate for the CustomCrowdsale cap - Value Defining the Current Cap for the CustomCrowdsale WETH9 - Value Defining the Current WETH9 Token for the CustomCrowdsale CustomToken - Value Defining the Current CustomToken for the CustomCrowdsale contributionGoal - Value Defining the Current Goal for the CustomCrowdsale currentContribution - Value Defining currentContribution status for the CustomCrowdsale startingTime - Value Defining the startingTime for the CustomCrowdsale closingTime - Value Defining the closingTime for CustomCrowdsale releaseTime - Value Defining the releaseTime for CustomCrowdsale ICOCompleted - Value Defining the Open/Close status for CustomCrowdsale ICOGoalReached - Value Defining the status for the contributionGoal in CustomCrowdsale contributions - Value Defining the every buy until claim in CustomCrowdsale"
  },
  "userdoc": {
    "methods": {
      "getTokenTotalSupply()": {
        "notice": "GETTERS"
      }
    }
  }
}