{
  "contractName": "CustomToken",
  "abi": [
    {
      "constant": true,
      "inputs": [],
      "name": "name",
      "outputs": [
        {
          "name": "",
          "type": "string"
        }
      ],
      "payable": false,
      "stateMutability": "view",
      "type": "function"
    },
    {
      "constant": true,
      "inputs": [],
      "name": "decimals",
      "outputs": [
        {
          "name": "",
          "type": "uint8"
        }
      ],
      "payable": false,
      "stateMutability": "view",
      "type": "function"
    },
    {
      "constant": true,
      "inputs": [
        {
          "name": "",
          "type": "address"
        }
      ],
      "name": "balanceOf",
      "outputs": [
        {
          "name": "",
          "type": "uint256"
        }
      ],
      "payable": false,
      "stateMutability": "view",
      "type": "function"
    },
    {
      "constant": false,
      "inputs": [],
      "name": "renounceOwnership",
      "outputs": [],
      "payable": false,
      "stateMutability": "nonpayable",
      "type": "function"
    },
    {
      "constant": true,
      "inputs": [],
      "name": "owner",
      "outputs": [
        {
          "name": "",
          "type": "address"
        }
      ],
      "payable": false,
      "stateMutability": "view",
      "type": "function"
    },
    {
      "constant": true,
      "inputs": [],
      "name": "isOwner",
      "outputs": [
        {
          "name": "",
          "type": "bool"
        }
      ],
      "payable": false,
      "stateMutability": "view",
      "type": "function"
    },
    {
      "constant": true,
      "inputs": [],
      "name": "symbol",
      "outputs": [
        {
          "name": "",
          "type": "string"
        }
      ],
      "payable": false,
      "stateMutability": "view",
      "type": "function"
    },
    {
      "constant": true,
      "inputs": [
        {
          "name": "",
          "type": "address"
        },
        {
          "name": "",
          "type": "address"
        }
      ],
      "name": "allowance",
      "outputs": [
        {
          "name": "",
          "type": "uint256"
        }
      ],
      "payable": false,
      "stateMutability": "view",
      "type": "function"
    },
    {
      "constant": false,
      "inputs": [
        {
          "name": "newOwner",
          "type": "address"
        }
      ],
      "name": "transferOwnership",
      "outputs": [],
      "payable": false,
      "stateMutability": "nonpayable",
      "type": "function"
    },
    {
      "inputs": [
        {
          "name": "_amount",
          "type": "uint256"
        }
      ],
      "payable": false,
      "stateMutability": "nonpayable",
      "type": "constructor"
    },
    {
      "anonymous": false,
      "inputs": [
        {
          "indexed": true,
          "name": "_from",
          "type": "address"
        },
        {
          "indexed": true,
          "name": "_to",
          "type": "address"
        },
        {
          "indexed": false,
          "name": "_value",
          "type": "uint256"
        }
      ],
      "name": "Transfer",
      "type": "event"
    },
    {
      "anonymous": false,
      "inputs": [
        {
          "indexed": true,
          "name": "previousOwner",
          "type": "address"
        },
        {
          "indexed": true,
          "name": "newOwner",
          "type": "address"
        }
      ],
      "name": "OwnershipTransferred",
      "type": "event"
    },
    {
      "anonymous": false,
      "inputs": [
        {
          "indexed": true,
          "name": "owner",
          "type": "address"
        },
        {
          "indexed": true,
          "name": "spender",
          "type": "address"
        },
        {
          "indexed": false,
          "name": "value",
          "type": "uint256"
        }
      ],
      "name": "Approval",
      "type": "event"
    },
    {
      "constant": true,
      "inputs": [],
      "name": "totalSupply",
      "outputs": [
        {
          "name": "",
          "type": "uint256"
        }
      ],
      "payable": false,
      "stateMutability": "view",
      "type": "function"
    },
    {
      "constant": false,
      "inputs": [
        {
          "name": "addr",
          "type": "address"
        },
        {
          "name": "_amount",
          "type": "uint256"
        }
      ],
      "name": "approve",
      "outputs": [
        {
          "name": "",
          "type": "bool"
        }
      ],
      "payable": false,
      "stateMutability": "nonpayable",
      "type": "function"
    },
    {
      "constant": false,
      "inputs": [
        {
          "name": "dst",
          "type": "address"
        },
        {
          "name": "_amount",
          "type": "uint256"
        }
      ],
      "name": "transfer",
      "outputs": [
        {
          "name": "",
          "type": "bool"
        }
      ],
      "payable": false,
      "stateMutability": "nonpayable",
      "type": "function"
    },
    {
      "constant": false,
      "inputs": [
        {
          "name": "src",
          "type": "address"
        },
        {
          "name": "dst",
          "type": "address"
        },
        {
          "name": "_amount",
          "type": "uint256"
        }
      ],
      "name": "transferFrom",
      "outputs": [
        {
          "name": "",
          "type": "bool"
        }
      ],
      "payable": false,
      "stateMutability": "nonpayable",
      "type": "function"
    },
    {
      "constant": true,
      "inputs": [
        {
          "name": "addr",
          "type": "address"
        }
      ],
      "name": "getBalance",
      "outputs": [
        {
          "name": "",
          "type": "uint256"
        }
      ],
      "payable": false,
      "stateMutability": "view",
      "type": "function"
    }
  ],
  "bytecode": "0x60806040523480156200001157600080fd5b5060405160208062001533833981018060405260208110156200003357600080fd5b81019080805190602001909291905050506040518060400160405280601581526020017f437573746f6d20546f6b656e2043757272656e637900000000000000000000008152506040518060400160405280600381526020017f435443000000000000000000000000000000000000000000000000000000000081525060128260009080519060200190620000ca9291906200020b565b508160019080519060200190620000e39291906200020b565b5080600260006101000a81548160ff021916908360ff16021790555050505033600260016101000a81548173ffffffffffffffffffffffffffffffffffffffff021916908373ffffffffffffffffffffffffffffffffffffffff160217905550600260019054906101000a900473ffffffffffffffffffffffffffffffffffffffff1673ffffffffffffffffffffffffffffffffffffffff16600073ffffffffffffffffffffffffffffffffffffffff167f8be0079c531659141344cd1fd0a4f28419497f9722a3daafe3b4186f6b6457e060405160405180910390a380600360003373ffffffffffffffffffffffffffffffffffffffff1673ffffffffffffffffffffffffffffffffffffffff1681526020019081526020016000208190555050620002ba565b828054600181600116156101000203166002900490600052602060002090601f016020900481019282601f106200024e57805160ff19168380011785556200027f565b828001600101855582156200027f579182015b828111156200027e57825182559160200191906001019062000261565b5b5090506200028e919062000292565b5090565b620002b791905b80821115620002b357600081600090555060010162000299565b5090565b90565b61126980620002ca6000396000f3fe608060405234801561001057600080fd5b50600436106100ea5760003560e01c80638da5cb5b1161008c578063a9059cbb11610066578063a9059cbb146103f1578063dd62ed3e14610457578063f2fde38b146104cf578063f8b2cb4f14610513576100ea565b80638da5cb5b146103025780638f32d59b1461034c57806395d89b411461036e576100ea565b806323b872dd116100c857806323b872dd146101f6578063313ce5671461027c57806370a08231146102a0578063715018a6146102f8576100ea565b806306fdde03146100ef578063095ea7b31461017257806318160ddd146101d8575b600080fd5b6100f761056b565b6040518080602001828103825283818151815260200191508051906020019080838360005b8381101561013757808201518184015260208101905061011c565b50505050905090810190601f1680156101645780820380516001836020036101000a031916815260200191505b509250505060405180910390f35b6101be6004803603604081101561018857600080fd5b81019080803573ffffffffffffffffffffffffffffffffffffffff1690602001909291908035906020019092919050505061060d565b604051808215151515815260200191505060405180910390f35b6101e06106ff565b6040518082815260200191505060405180910390f35b6102626004803603606081101561020c57600080fd5b81019080803573ffffffffffffffffffffffffffffffffffffffff169060200190929190803573ffffffffffffffffffffffffffffffffffffffff1690602001909291908035906020019092919050505061071e565b604051808215151515815260200191505060405180910390f35b610284610c29565b604051808260ff1660ff16815260200191505060405180910390f35b6102e2600480360360208110156102b657600080fd5b81019080803573ffffffffffffffffffffffffffffffffffffffff169060200190929190505050610c40565b6040518082815260200191505060405180910390f35b610300610c58565b005b61030a610d93565b604051808273ffffffffffffffffffffffffffffffffffffffff1673ffffffffffffffffffffffffffffffffffffffff16815260200191505060405180910390f35b610354610dbd565b604051808215151515815260200191505060405180910390f35b610376610e15565b6040518080602001828103825283818151815260200191508051906020019080838360005b838110156103b657808201518184015260208101905061039b565b50505050905090810190601f1680156103e35780820380516001836020036101000a031916815260200191505b509250505060405180910390f35b61043d6004803603604081101561040757600080fd5b81019080803573ffffffffffffffffffffffffffffffffffffffff16906020019092919080359060200190929190505050610eb7565b604051808215151515815260200191505060405180910390f35b6104b96004803603604081101561046d57600080fd5b81019080803573ffffffffffffffffffffffffffffffffffffffff169060200190929190803573ffffffffffffffffffffffffffffffffffffffff169060200190929190505050610ecc565b6040518082815260200191505060405180910390f35b610511600480360360208110156104e557600080fd5b81019080803573ffffffffffffffffffffffffffffffffffffffff169060200190929190505050610ef1565b005b6105556004803603602081101561052957600080fd5b81019080803573ffffffffffffffffffffffffffffffffffffffff169060200190929190505050610f77565b6040518082815260200191505060405180910390f35b606060008054600181600116156101000203166002900480601f0160208091040260200160405190810160405280929190818152602001828054600181600116156101000203166002900480156106035780601f106105d857610100808354040283529160200191610603565b820191906000526020600020905b8154815290600101906020018083116105e657829003601f168201915b5050505050905090565b600081600460003373ffffffffffffffffffffffffffffffffffffffff1673ffffffffffffffffffffffffffffffffffffffff16815260200190815260200160002060008573ffffffffffffffffffffffffffffffffffffffff1673ffffffffffffffffffffffffffffffffffffffff168152602001908152602001600020819055508273ffffffffffffffffffffffffffffffffffffffff163373ffffffffffffffffffffffffffffffffffffffff167f8c5be1e5ebec7d5bd14f71427d1e84f3dd0314c0f7b2291e5b200ac8c7c3b925846040518082815260200191505060405180910390a36001905092915050565b60003073ffffffffffffffffffffffffffffffffffffffff1631905090565b600081600360008673ffffffffffffffffffffffffffffffffffffffff1673ffffffffffffffffffffffffffffffffffffffff1681526020019081526020016000205410156107b0576040517f08c379a0000000000000000000000000000000000000000000000000000000008152600401808060200182810382526000815260200160200191505060405180910390fd5b3373ffffffffffffffffffffffffffffffffffffffff168473ffffffffffffffffffffffffffffffffffffffff161415801561088857507fffffffffffffffffffffffffffffffffffffffffffffffffffffffffffffffff600460008673ffffffffffffffffffffffffffffffffffffffff1673ffffffffffffffffffffffffffffffffffffffff16815260200190815260200160002060003373ffffffffffffffffffffffffffffffffffffffff1673ffffffffffffffffffffffffffffffffffffffff1681526020019081526020016000205414155b15610a8f5781600460008673ffffffffffffffffffffffffffffffffffffffff1673ffffffffffffffffffffffffffffffffffffffff16815260200190815260200160002060003373ffffffffffffffffffffffffffffffffffffffff1673ffffffffffffffffffffffffffffffffffffffff16815260200190815260200160002054101561097f576040517f08c379a00000000000000000000000000000000000000000000000000000000081526004018080602001828103825260158152602001807f6e6f7420656e6f75676820416c6c6f77616e636520000000000000000000000081525060200191505060405180910390fd5b610a0e82600460008773ffffffffffffffffffffffffffffffffffffffff1673ffffffffffffffffffffffffffffffffffffffff16815260200190815260200160002060003373ffffffffffffffffffffffffffffffffffffffff1673ffffffffffffffffffffffffffffffffffffffff16815260200190815260200160002054610fc090919063ffffffff16565b600460008673ffffffffffffffffffffffffffffffffffffffff1673ffffffffffffffffffffffffffffffffffffffff16815260200190815260200160002060003373ffffffffffffffffffffffffffffffffffffffff1673ffffffffffffffffffffffffffffffffffffffff168152602001908152602001600020819055505b610ae182600360008773ffffffffffffffffffffffffffffffffffffffff1673ffffffffffffffffffffffffffffffffffffffff1681526020019081526020016000205461104890919063ffffffff16565b600360008673ffffffffffffffffffffffffffffffffffffffff1673ffffffffffffffffffffffffffffffffffffffff16815260200190815260200160002081905550610b7682600360008673ffffffffffffffffffffffffffffffffffffffff1673ffffffffffffffffffffffffffffffffffffffff16815260200190815260200160002054610fc090919063ffffffff16565b600360008573ffffffffffffffffffffffffffffffffffffffff1673ffffffffffffffffffffffffffffffffffffffff168152602001908152602001600020819055508273ffffffffffffffffffffffffffffffffffffffff168473ffffffffffffffffffffffffffffffffffffffff167fddf252ad1be2c89b69c2b068fc378daa952ba7f163c4a11628f55a4df523b3ef846040518082815260200191505060405180910390a3600190509392505050565b6000600260009054906101000a900460ff16905090565b60036020528060005260406000206000915090505481565b610c60610dbd565b610cd2576040517f08c379a00000000000000000000000000000000000000000000000000000000081526004018080602001828103825260208152602001807f4f776e61626c653a2063616c6c6572206973206e6f7420746865206f776e657281525060200191505060405180910390fd5b600073ffffffffffffffffffffffffffffffffffffffff16600260019054906101000a900473ffffffffffffffffffffffffffffffffffffffff1673ffffffffffffffffffffffffffffffffffffffff167f8be0079c531659141344cd1fd0a4f28419497f9722a3daafe3b4186f6b6457e060405160405180910390a36000600260016101000a81548173ffffffffffffffffffffffffffffffffffffffff021916908373ffffffffffffffffffffffffffffffffffffffff160217905550565b6000600260019054906101000a900473ffffffffffffffffffffffffffffffffffffffff16905090565b6000600260019054906101000a900473ffffffffffffffffffffffffffffffffffffffff1673ffffffffffffffffffffffffffffffffffffffff163373ffffffffffffffffffffffffffffffffffffffff1614905090565b606060018054600181600116156101000203166002900480601f016020809104026020016040519081016040528092919081815260200182805460018160011615610100020316600290048015610ead5780601f10610e8257610100808354040283529160200191610ead565b820191906000526020600020905b815481529060010190602001808311610e9057829003601f168201915b5050505050905090565b6000610ec433848461071e565b905092915050565b6004602052816000526040600020602052806000526040600020600091509150505481565b610ef9610dbd565b610f6b576040517f08c379a00000000000000000000000000000000000000000000000000000000081526004018080602001828103825260208152602001807f4f776e61626c653a2063616c6c6572206973206e6f7420746865206f776e657281525060200191505060405180910390fd5b610f74816110d1565b50565b6000600360008373ffffffffffffffffffffffffffffffffffffffff1673ffffffffffffffffffffffffffffffffffffffff168152602001908152602001600020549050919050565b60008082840190508381101561103e576040517f08c379a000000000000000000000000000000000000000000000000000000000815260040180806020018281038252601b8152602001807f536166654d6174683a206164646974696f6e206f766572666c6f77000000000081525060200191505060405180910390fd5b8091505092915050565b6000828211156110c0576040517f08c379a000000000000000000000000000000000000000000000000000000000815260040180806020018281038252601e8152602001807f536166654d6174683a207375627472616374696f6e206f766572666c6f77000081525060200191505060405180910390fd5b600082840390508091505092915050565b600073ffffffffffffffffffffffffffffffffffffffff168173ffffffffffffffffffffffffffffffffffffffff161415611157576040517f08c379a00000000000000000000000000000000000000000000000000000000081526004018080602001828103825260268152602001806112186026913960400191505060405180910390fd5b8073ffffffffffffffffffffffffffffffffffffffff16600260019054906101000a900473ffffffffffffffffffffffffffffffffffffffff1673ffffffffffffffffffffffffffffffffffffffff167f8be0079c531659141344cd1fd0a4f28419497f9722a3daafe3b4186f6b6457e060405160405180910390a380600260016101000a81548173ffffffffffffffffffffffffffffffffffffffff021916908373ffffffffffffffffffffffffffffffffffffffff1602179055505056fe4f776e61626c653a206e6577206f776e657220697320746865207a65726f2061646472657373a165627a7a72305820035a22ef64249c5b63318c2cc899b867f5ae160919ba7b4fcb136f373b2155860029",
  "source": "// Current Solidity Version\npragma solidity >=0.5.0 <0.6.0;\n\n/*\n * @title Imports\n * Import ERC20Detailed Module from OpenZeppelin Library\n * Import SafeMath Module from OpenZeppelin Library\n */\nimport \"openzeppelin-solidity/contracts/token/ERC20/ERC20Detailed.sol\";\nimport \"openzeppelin-solidity/contracts/math/SafeMath.sol\";\nimport \"openzeppelin-solidity/contracts/ownership/Ownable.sol\";\n\n/**\n * @title CustomToken\n * It is meant to be used in the CustomCrowdsale Contract.\n */\ncontract CustomToken is ERC20Detailed, Ownable {\n    // Use SafeMath for uint256 Operations to prevent UnderFlow/OverFlow\n    using SafeMath for uint256;\n\n    // Mappings for Balance and Allowance\n    mapping (address => uint256)                       public  balanceOf;\n    mapping (address => mapping (address => uint256))  public  allowance;\n\n    /**\n     * Events to track during CustomToken operations\n     */\n    event Transfer(address indexed _from, address indexed _to, uint256 _value);\n\n    /**\n      * Constructor for the CustomToken Contract\n      */\n    constructor (uint256 _amount) public ERC20Detailed(\"Custom Token Currency\", \"CTC\", 18) {\n        balanceOf[msg.sender] = _amount;\n    }\n\n    // Total Supply Function for the CustomToken\n    function totalSupply() public view returns (uint256) {\n        return address(this).balance;\n    }\n\n    // Approve Function for the CustomToken\n    function approve(address addr, uint _amount) public returns (bool) {\n        allowance[msg.sender][addr] = _amount;\n        emit Approval(msg.sender, addr, _amount);\n        return true;\n    }\n\n    // Transfer Function for the CustomToken\n    function transfer(address dst, uint _amount) public returns (bool) {\n        return transferFrom(msg.sender, dst, _amount);\n    }\n\n    // TransferFrom Function for the CustomToken\n    function transferFrom(address src, address dst, uint _amount) public returns (bool) {\n        require(balanceOf[src] >= _amount,'');\n        if (src != msg.sender && allowance[src][msg.sender] != uint(-1)) {\n            require(allowance[src][msg.sender] >= _amount, 'not enough Allowance ');\n            allowance[src][msg.sender] = allowance[src][msg.sender].add(_amount);\n        }\n\n        balanceOf[src] = balanceOf[src].sub(_amount);\n        balanceOf[dst] = balanceOf[dst].add(_amount);\n\n        emit Transfer(src, dst, _amount);\n        return true;\n    }\n\n    // GetBalance Function for the CustomCrowdsale\n    function getBalance(address addr) public view returns(uint) {\n        return balanceOf[addr];\n    }\n}\n\n",
  "sourcePath": "/home/asigan/Github_Projects/EthereumPARTokenCrowdSale/contracts/tokens/CustomToken.sol",
  "compiler": {
    "name": "solc",
    "version": "0.5.8+commit.23d335f2.Emscripten.clang"
  },
  "schemaVersion": "3.0.16",
  "updatedAt": "2019-10-29T12:32:33.022Z",
  "devdoc": {
    "methods": {
      "decimals()": {
        "details": "Returns the number of decimals used to get its user representation. For example, if `decimals` equals `2`, a balance of `505` tokens should be displayed to a user as `5,05` (`505 / 10 ** 2`).     * Tokens usually opt for a value of 18, imitating the relationship between Ether and Wei.     * > Note that this information is only used for _display_ purposes: it in no way affects any of the arithmetic of the contract, including `IERC20.balanceOf` and `IERC20.transfer`."
      },
      "isOwner()": {
        "details": "Returns true if the caller is the current owner."
      },
      "name()": {
        "details": "Returns the name of the token."
      },
      "owner()": {
        "details": "Returns the address of the current owner."
      },
      "renounceOwnership()": {
        "details": "Leaves the contract without owner. It will not be possible to call `onlyOwner` functions anymore. Can only be called by the current owner.     * > Note: Renouncing ownership will leave the contract without an owner, thereby removing any functionality that is only available to the owner."
      },
      "symbol()": {
        "details": "Returns the symbol of the token, usually a shorter version of the name."
      },
      "transferOwnership(address)": {
        "details": "Transfers ownership of the contract to a new account (`newOwner`). Can only be called by the current owner."
      }
    },
    "title": "CustomToken It is meant to be used in the CustomCrowdsale Contract."
  },
  "userdoc": {
    "methods": {
      "constructor": "Constructor for the CustomToken Contract"
    }
  }
}