{
  "contractName": "CustomCrowdsale",
  "abi": [
    {
      "constant": true,
      "inputs": [],
      "name": "currentContribution",
      "outputs": [
        {
          "name": "",
          "type": "uint256"
        }
      ],
      "payable": false,
      "stateMutability": "view",
      "type": "function"
    },
    {
      "constant": true,
      "inputs": [],
      "name": "rate",
      "outputs": [
        {
          "name": "",
          "type": "uint256"
        }
      ],
      "payable": false,
      "stateMutability": "view",
      "type": "function"
    },
    {
      "constant": true,
      "inputs": [],
      "name": "cap",
      "outputs": [
        {
          "name": "",
          "type": "uint256"
        }
      ],
      "payable": false,
      "stateMutability": "view",
      "type": "function"
    },
    {
      "constant": true,
      "inputs": [],
      "name": "startingTime",
      "outputs": [
        {
          "name": "",
          "type": "uint256"
        }
      ],
      "payable": false,
      "stateMutability": "view",
      "type": "function"
    },
    {
      "constant": true,
      "inputs": [
        {
          "name": "",
          "type": "address"
        }
      ],
      "name": "contributions",
      "outputs": [
        {
          "name": "",
          "type": "uint256"
        }
      ],
      "payable": false,
      "stateMutability": "view",
      "type": "function"
    },
    {
      "constant": true,
      "inputs": [],
      "name": "closingTime",
      "outputs": [
        {
          "name": "",
          "type": "uint256"
        }
      ],
      "payable": false,
      "stateMutability": "view",
      "type": "function"
    },
    {
      "constant": true,
      "inputs": [],
      "name": "weth9",
      "outputs": [
        {
          "name": "",
          "type": "address"
        }
      ],
      "payable": false,
      "stateMutability": "view",
      "type": "function"
    },
    {
      "constant": true,
      "inputs": [],
      "name": "ICOGoalReached",
      "outputs": [
        {
          "name": "",
          "type": "bool"
        }
      ],
      "payable": false,
      "stateMutability": "view",
      "type": "function"
    },
    {
      "constant": true,
      "inputs": [],
      "name": "ICOCompleted",
      "outputs": [
        {
          "name": "",
          "type": "bool"
        }
      ],
      "payable": false,
      "stateMutability": "view",
      "type": "function"
    },
    {
      "constant": false,
      "inputs": [],
      "name": "renounceOwnership",
      "outputs": [],
      "payable": false,
      "stateMutability": "nonpayable",
      "type": "function"
    },
    {
      "constant": true,
      "inputs": [],
      "name": "owner",
      "outputs": [
        {
          "name": "",
          "type": "address"
        }
      ],
      "payable": false,
      "stateMutability": "view",
      "type": "function"
    },
    {
      "constant": true,
      "inputs": [],
      "name": "isOwner",
      "outputs": [
        {
          "name": "",
          "type": "bool"
        }
      ],
      "payable": false,
      "stateMutability": "view",
      "type": "function"
    },
    {
      "constant": true,
      "inputs": [],
      "name": "contributionGoal",
      "outputs": [
        {
          "name": "",
          "type": "uint256"
        }
      ],
      "payable": false,
      "stateMutability": "view",
      "type": "function"
    },
    {
      "constant": true,
      "inputs": [],
      "name": "releaseTime",
      "outputs": [
        {
          "name": "",
          "type": "uint256"
        }
      ],
      "payable": false,
      "stateMutability": "view",
      "type": "function"
    },
    {
      "constant": false,
      "inputs": [
        {
          "name": "newOwner",
          "type": "address"
        }
      ],
      "name": "transferOwnership",
      "outputs": [],
      "payable": false,
      "stateMutability": "nonpayable",
      "type": "function"
    },
    {
      "constant": true,
      "inputs": [],
      "name": "token",
      "outputs": [
        {
          "name": "",
          "type": "address"
        }
      ],
      "payable": false,
      "stateMutability": "view",
      "type": "function"
    },
    {
      "inputs": [
        {
          "name": "_rate",
          "type": "uint256"
        },
        {
          "name": "_cap",
          "type": "uint256"
        },
        {
          "name": "_contributionGoal",
          "type": "uint256"
        },
        {
          "name": "_wethAddr",
          "type": "address"
        },
        {
          "name": "_tokenAddr",
          "type": "address"
        },
        {
          "name": "_staringTime",
          "type": "uint256"
        },
        {
          "name": "_closingTime",
          "type": "uint256"
        },
        {
          "name": "_releaseTime",
          "type": "uint256"
        }
      ],
      "payable": false,
      "stateMutability": "nonpayable",
      "type": "constructor"
    },
    {
      "payable": true,
      "stateMutability": "payable",
      "type": "fallback"
    },
    {
      "anonymous": false,
      "inputs": [
        {
          "indexed": false,
          "name": "_from",
          "type": "address"
        },
        {
          "indexed": false,
          "name": "_amount",
          "type": "uint256"
        }
      ],
      "name": "Contribution",
      "type": "event"
    },
    {
      "anonymous": false,
      "inputs": [
        {
          "indexed": false,
          "name": "_from",
          "type": "address"
        },
        {
          "indexed": false,
          "name": "_amount",
          "type": "uint256"
        }
      ],
      "name": "ClaimContribution",
      "type": "event"
    },
    {
      "anonymous": false,
      "inputs": [
        {
          "indexed": false,
          "name": "_from",
          "type": "address"
        },
        {
          "indexed": false,
          "name": "time",
          "type": "uint256"
        }
      ],
      "name": "CloseCrowdsale",
      "type": "event"
    },
    {
      "anonymous": false,
      "inputs": [
        {
          "indexed": false,
          "name": "_sender",
          "type": "address"
        },
        {
          "indexed": false,
          "name": "_claimedTokens",
          "type": "uint256"
        },
        {
          "indexed": false,
          "name": "_balance",
          "type": "uint256"
        }
      ],
      "name": "claimContributionPreTx",
      "type": "event"
    },
    {
      "anonymous": false,
      "inputs": [
        {
          "indexed": true,
          "name": "previousOwner",
          "type": "address"
        },
        {
          "indexed": true,
          "name": "newOwner",
          "type": "address"
        }
      ],
      "name": "OwnershipTransferred",
      "type": "event"
    },
    {
      "constant": false,
      "inputs": [],
      "name": "closeICO",
      "outputs": [
        {
          "name": "",
          "type": "bool"
        }
      ],
      "payable": false,
      "stateMutability": "nonpayable",
      "type": "function"
    },
    {
      "constant": false,
      "inputs": [],
      "name": "buyToken",
      "outputs": [
        {
          "name": "",
          "type": "bool"
        }
      ],
      "payable": true,
      "stateMutability": "payable",
      "type": "function"
    },
    {
      "constant": false,
      "inputs": [],
      "name": "claimContribution",
      "outputs": [
        {
          "name": "",
          "type": "bool"
        }
      ],
      "payable": false,
      "stateMutability": "nonpayable",
      "type": "function"
    },
    {
      "constant": true,
      "inputs": [],
      "name": "getTokenTotalSupply",
      "outputs": [
        {
          "name": "",
          "type": "uint256"
        }
      ],
      "payable": false,
      "stateMutability": "view",
      "type": "function"
    },
    {
      "constant": true,
      "inputs": [
        {
          "name": "contributor",
          "type": "address"
        }
      ],
      "name": "getTokenToClaim",
      "outputs": [
        {
          "name": "",
          "type": "uint256"
        }
      ],
      "payable": false,
      "stateMutability": "view",
      "type": "function"
    },
    {
      "constant": true,
      "inputs": [],
      "name": "getWethTotalSupply",
      "outputs": [
        {
          "name": "",
          "type": "uint256"
        }
      ],
      "payable": false,
      "stateMutability": "view",
      "type": "function"
    },
    {
      "constant": true,
      "inputs": [],
      "name": "getCurrentContribution",
      "outputs": [
        {
          "name": "",
          "type": "uint256"
        }
      ],
      "payable": false,
      "stateMutability": "view",
      "type": "function"
    },
    {
      "constant": true,
      "inputs": [],
      "name": "getRate",
      "outputs": [
        {
          "name": "",
          "type": "uint256"
        }
      ],
      "payable": false,
      "stateMutability": "view",
      "type": "function"
    },
    {
      "constant": true,
      "inputs": [],
      "name": "getCap",
      "outputs": [
        {
          "name": "",
          "type": "uint256"
        }
      ],
      "payable": false,
      "stateMutability": "view",
      "type": "function"
    },
    {
      "constant": true,
      "inputs": [],
      "name": "getGoal",
      "outputs": [
        {
          "name": "",
          "type": "uint256"
        }
      ],
      "payable": false,
      "stateMutability": "view",
      "type": "function"
    },
    {
      "constant": true,
      "inputs": [],
      "name": "isCompleted",
      "outputs": [
        {
          "name": "",
          "type": "bool"
        }
      ],
      "payable": false,
      "stateMutability": "view",
      "type": "function"
    },
    {
      "constant": true,
      "inputs": [],
      "name": "getStartingTime",
      "outputs": [
        {
          "name": "",
          "type": "uint256"
        }
      ],
      "payable": false,
      "stateMutability": "view",
      "type": "function"
    },
    {
      "constant": true,
      "inputs": [],
      "name": "getClosingTime",
      "outputs": [
        {
          "name": "",
          "type": "uint256"
        }
      ],
      "payable": false,
      "stateMutability": "view",
      "type": "function"
    },
    {
      "constant": true,
      "inputs": [],
      "name": "getReleaseTime",
      "outputs": [
        {
          "name": "",
          "type": "uint256"
        }
      ],
      "payable": false,
      "stateMutability": "view",
      "type": "function"
    }
  ],
  "bytecode": "0x608060405260006006556000600a60006101000a81548160ff0219169083151502179055506000600a60016101000a81548160ff02191690831515021790555034801561004b57600080fd5b506040516101008062001f65833981018060405261010081101561006e57600080fd5b810190808051906020019092919080519060200190929190805190602001909291908051906020019092919080519060200190929190805190602001909291908051906020019092919080519060200190929190505050336000806101000a81548173ffffffffffffffffffffffffffffffffffffffff021916908373ffffffffffffffffffffffffffffffffffffffff1602179055506000809054906101000a900473ffffffffffffffffffffffffffffffffffffffff1673ffffffffffffffffffffffffffffffffffffffff16600073ffffffffffffffffffffffffffffffffffffffff167f8be0079c531659141344cd1fd0a4f28419497f9722a3daafe3b4186f6b6457e060405160405180910390a387600381905550866004819055508560058190555084600160006101000a81548173ffffffffffffffffffffffffffffffffffffffff021916908373ffffffffffffffffffffffffffffffffffffffff16021790555083600260006101000a81548173ffffffffffffffffffffffffffffffffffffffff021916908373ffffffffffffffffffffffffffffffffffffffff16021790555082600781905550816008819055508060098190555042600754116102a4576040517f08c379a00000000000000000000000000000000000000000000000000000000081526004018080602001828103825260168152602001807f53746172696e6754696d65206265666f7265204e6f770000000000000000000081525060200191505060405180910390fd5b60075460085411610301576040517f08c379a000000000000000000000000000000000000000000000000000000000815260040180806020018281038252602281526020018062001f436022913960400191505060405180910390fd5b600060045411610379576040517f08c379a00000000000000000000000000000000000000000000000000000000081526004018080602001828103825260198152602001807f4361702056616c7565206d7573742062652061626f766520300000000000000081525060200191505060405180910390fd5b6000600554116103f1576040517f08c379a000000000000000000000000000000000000000000000000000000000815260040180806020018281038252601a8152602001807f476f616c2056616c7565206d7573742062652061626f7665203000000000000081525060200191505060405180910390fd5b6004546005541161044e576040517f08c379a000000000000000000000000000000000000000000000000000000000815260040180806020018281038252602281526020018062001f216022913960400191505060405180910390fd5b5050505050505050611abb80620004666000396000f3fe6080604052600436106101cd5760003560e01c8063554d578d116100f7578063a482171911610095578063b97a7d2411610064578063b97a7d24146106f9578063f2fde38b14610724578063fa391c6414610775578063fc0c546a146107a4576101cd565b8063a482171914610656578063ad477c4714610678578063b8623d53146106a3578063b91d4001146106ce576101cd565b8063679aefce116100d1578063679aefce1461058e578063715018a6146105b95780638da5cb5b146105d05780638f32d59b14610627576101cd565b8063554d578d1461050957806357df844b1461053457806363a442621461055f576101cd565b806339518b5e1161016f57806350879c1c1161013e57806350879c1c14610429578063529fc11e1461048057806353462d6b146104af57806354238645146104da576101cd565b806339518b5e1461034357806342e94c901461036e57806343a42c2f146103d35780634b6753bc146103fe576101cd565b806320f634b5116101ab57806320f634b51461025d5780632c4e722e146102c25780632f9cb9aa146102ed578063355274ea14610318576101cd565b80630114a690146101d85780630dc0c97114610207578063111961f814610232575b6101d56107fb565b50005b3480156101e457600080fd5b506101ed610c2d565b604051808215151515815260200191505060405180910390f35b34801561021357600080fd5b5061021c6110aa565b6040518082815260200191505060405180910390f35b34801561023e57600080fd5b506102476110b4565b6040518082815260200191505060405180910390f35b34801561026957600080fd5b506102ac6004803603602081101561028057600080fd5b81019080803573ffffffffffffffffffffffffffffffffffffffff1690602001909291905050506110ba565b6040518082815260200191505060405180910390f35b3480156102ce57600080fd5b506102d7611107565b6040518082815260200191505060405180910390f35b3480156102f957600080fd5b5061030261110d565b6040518082815260200191505060405180910390f35b34801561032457600080fd5b5061032d611117565b6040518082815260200191505060405180910390f35b34801561034f57600080fd5b5061035861111d565b6040518082815260200191505060405180910390f35b34801561037a57600080fd5b506103bd6004803603602081101561039157600080fd5b81019080803573ffffffffffffffffffffffffffffffffffffffff169060200190929190505050611123565b6040518082815260200191505060405180910390f35b3480156103df57600080fd5b506103e861113b565b6040518082815260200191505060405180910390f35b34801561040a57600080fd5b506104136111e5565b6040518082815260200191505060405180910390f35b34801561043557600080fd5b5061043e6111eb565b604051808273ffffffffffffffffffffffffffffffffffffffff1673ffffffffffffffffffffffffffffffffffffffff16815260200191505060405180910390f35b34801561048c57600080fd5b50610495611211565b604051808215151515815260200191505060405180910390f35b3480156104bb57600080fd5b506104c4611224565b6040518082815260200191505060405180910390f35b3480156104e657600080fd5b506104ef61122e565b604051808215151515815260200191505060405180910390f35b34801561051557600080fd5b5061051e611337565b6040518082815260200191505060405180910390f35b34801561054057600080fd5b50610549611341565b6040518082815260200191505060405180910390f35b34801561056b57600080fd5b506105746113eb565b604051808215151515815260200191505060405180910390f35b34801561059a57600080fd5b506105a36113fe565b6040518082815260200191505060405180910390f35b3480156105c557600080fd5b506105ce611408565b005b3480156105dc57600080fd5b506105e5611541565b604051808273ffffffffffffffffffffffffffffffffffffffff1673ffffffffffffffffffffffffffffffffffffffff16815260200191505060405180910390f35b34801561063357600080fd5b5061063c61156a565b604051808215151515815260200191505060405180910390f35b61065e6107fb565b604051808215151515815260200191505060405180910390f35b34801561068457600080fd5b5061068d6115c1565b6040518082815260200191505060405180910390f35b3480156106af57600080fd5b506106b86115c7565b6040518082815260200191505060405180910390f35b3480156106da57600080fd5b506106e36115d1565b6040518082815260200191505060405180910390f35b34801561070557600080fd5b5061070e6115d7565b6040518082815260200191505060405180910390f35b34801561073057600080fd5b506107736004803603602081101561074757600080fd5b81019080803573ffffffffffffffffffffffffffffffffffffffff1690602001909291905050506115e1565b005b34801561078157600080fd5b5061078a611667565b604051808215151515815260200191505060405180910390f35b3480156107b057600080fd5b506107b961167e565b604051808273ffffffffffffffffffffffffffffffffffffffff1673ffffffffffffffffffffffffffffffffffffffff16815260200191505060405180910390f35b600080349050600454811061085b576040517f08c379a000000000000000000000000000000000000000000000000000000000815260040180806020018281038252602e8152602001806119c1602e913960400191505060405180910390fd5b600554600654106108b7576040517f08c379a00000000000000000000000000000000000000000000000000000000081526004018080602001828103825260418152602001806119806041913960600191505060405180910390fd5b6000811015610911576040517f08c379a0000000000000000000000000000000000000000000000000000000008152600401808060200182810382526026815260200180611a496026913960400191505060405180910390fd5b600080905061092982826116a490919063ffffffff16565b5061093f600654826116a490919063ffffffff16565b5060055481111561097f5761096160065460055461172c90919063ffffffff16565b91506001600a60016101000a81548160ff0219169083151502179055505b600160009054906101000a900473ffffffffffffffffffffffffffffffffffffffff1673ffffffffffffffffffffffffffffffffffffffff166323b872dd3330856040518463ffffffff1660e01b8152600401808473ffffffffffffffffffffffffffffffffffffffff1673ffffffffffffffffffffffffffffffffffffffff1681526020018373ffffffffffffffffffffffffffffffffffffffff1673ffffffffffffffffffffffffffffffffffffffff1681526020018281526020019350505050602060405180830381600087803b158015610a5c57600080fd5b505af1158015610a70573d6000803e3d6000fd5b505050506040513d6020811015610a8657600080fd5b8101908080519060200190929190505050610b09576040517f08c379a00000000000000000000000000000000000000000000000000000000081526004018080602001828103825260208152602001807f7472616e7366657246726f6d28292057657468657220686173204661696c656481525060200191505060405180910390fd5b610b1e826006546116a490919063ffffffff16565b600681905550610b7682600b60003373ffffffffffffffffffffffffffffffffffffffff1673ffffffffffffffffffffffffffffffffffffffff168152602001908152602001600020546116a490919063ffffffff16565b600b60003373ffffffffffffffffffffffffffffffffffffffff1673ffffffffffffffffffffffffffffffffffffffff168152602001908152602001600020819055507f4d154d4aae216bed6d0926db77c00df2b57c6b5ba4eee05775de20facede3a7b3383604051808373ffffffffffffffffffffffffffffffffffffffff1673ffffffffffffffffffffffffffffffffffffffff1681526020018281526020019250505060405180910390a160019250505090565b6000600a60009054906101000a900460ff16610cb1576040517f08c379a000000000000000000000000000000000000000000000000000000000815260040180806020018281038252601d8152602001807f437573746f6d43726f776473616c65204e6f7420436f6d706c6574656400000081525060200191505060405180910390fd5b600954421015610d0c576040517f08c379a0000000000000000000000000000000000000000000000000000000008152600401808060200182810382526034815260200180611a156034913960400191505060405180910390fd5b6000610d62600354600b60003373ffffffffffffffffffffffffffffffffffffffff1673ffffffffffffffffffffffffffffffffffffffff168152602001908152602001600020546117b590919063ffffffff16565b90507f01010b5d6c025d0c4cb16706a796168f588300bca2bac066816f536f2c4ceb0d3382600b60003373ffffffffffffffffffffffffffffffffffffffff1673ffffffffffffffffffffffffffffffffffffffff16815260200190815260200160002054604051808473ffffffffffffffffffffffffffffffffffffffff1673ffffffffffffffffffffffffffffffffffffffff168152602001838152602001828152602001935050505060405180910390a16000600b60003373ffffffffffffffffffffffffffffffffffffffff1673ffffffffffffffffffffffffffffffffffffffff16815260200190815260200160002054146110a157600260009054906101000a900473ffffffffffffffffffffffffffffffffffffffff1673ffffffffffffffffffffffffffffffffffffffff166323b872dd3033846040518463ffffffff1660e01b8152600401808473ffffffffffffffffffffffffffffffffffffffff1673ffffffffffffffffffffffffffffffffffffffff1681526020018373ffffffffffffffffffffffffffffffffffffffff1673ffffffffffffffffffffffffffffffffffffffff1681526020018281526020019350505050602060405180830381600087803b158015610f3a57600080fd5b505af1158015610f4e573d6000803e3d6000fd5b505050506040513d6020811015610f6457600080fd5b8101908080519060200190929190505050610fe7576040517f08c379a000000000000000000000000000000000000000000000000000000000815260040180806020018281038252601d8152602001807f7472616e7366657246726f6d28292043544320686173204661696c656400000081525060200191505060405180910390fd5b7fe2cacd9696795caa2d3fe049b4533489e66bc98a6a944ae76bfbb2d1de4d07b73382604051808373ffffffffffffffffffffffffffffffffffffffff1673ffffffffffffffffffffffffffffffffffffffff1681526020018281526020019250505060405180910390a16000600b60003373ffffffffffffffffffffffffffffffffffffffff1673ffffffffffffffffffffffffffffffffffffffff1681526020019081526020016000208190555060019150506110a7565b60009150505b90565b6000600754905090565b60065481565b6000600354600b60008473ffffffffffffffffffffffffffffffffffffffff1673ffffffffffffffffffffffffffffffffffffffff16815260200190815260200160002054029050919050565b60035481565b6000600854905090565b60045481565b60075481565b600b6020528060005260406000206000915090505481565b6000600160009054906101000a900473ffffffffffffffffffffffffffffffffffffffff1673ffffffffffffffffffffffffffffffffffffffff166318160ddd6040518163ffffffff1660e01b815260040160206040518083038186803b1580156111a557600080fd5b505afa1580156111b9573d6000803e3d6000fd5b505050506040513d60208110156111cf57600080fd5b8101908080519060200190929190505050905090565b60085481565b600160009054906101000a900473ffffffffffffffffffffffffffffffffffffffff1681565b600a60019054906101000a900460ff1681565b6000600954905090565b600061123861156a565b6112aa576040517f08c379a00000000000000000000000000000000000000000000000000000000081526004018080602001828103825260208152602001807f4f776e61626c653a2063616c6c6572206973206e6f7420746865206f776e657281525060200191505060405180910390fd5b6001600a60006101000a81548160ff0219169083151502179055507fa335a1c1060ac25caf36b1623df502a6074f517189c942acb1a81176401ea9a13342604051808373ffffffffffffffffffffffffffffffffffffffff1673ffffffffffffffffffffffffffffffffffffffff1681526020018281526020019250505060405180910390a16001905090565b6000600454905090565b6000600260009054906101000a900473ffffffffffffffffffffffffffffffffffffffff1673ffffffffffffffffffffffffffffffffffffffff166318160ddd6040518163ffffffff1660e01b815260040160206040518083038186803b1580156113ab57600080fd5b505afa1580156113bf573d6000803e3d6000fd5b505050506040513d60208110156113d557600080fd5b8101908080519060200190929190505050905090565b600a60009054906101000a900460ff1681565b6000600354905090565b61141061156a565b611482576040517f08c379a00000000000000000000000000000000000000000000000000000000081526004018080602001828103825260208152602001807f4f776e61626c653a2063616c6c6572206973206e6f7420746865206f776e657281525060200191505060405180910390fd5b600073ffffffffffffffffffffffffffffffffffffffff166000809054906101000a900473ffffffffffffffffffffffffffffffffffffffff1673ffffffffffffffffffffffffffffffffffffffff167f8be0079c531659141344cd1fd0a4f28419497f9722a3daafe3b4186f6b6457e060405160405180910390a360008060006101000a81548173ffffffffffffffffffffffffffffffffffffffff021916908373ffffffffffffffffffffffffffffffffffffffff160217905550565b60008060009054906101000a900473ffffffffffffffffffffffffffffffffffffffff16905090565b60008060009054906101000a900473ffffffffffffffffffffffffffffffffffffffff1673ffffffffffffffffffffffffffffffffffffffff163373ffffffffffffffffffffffffffffffffffffffff1614905090565b60055481565b6000600654905090565b60095481565b6000600554905090565b6115e961156a565b61165b576040517f08c379a00000000000000000000000000000000000000000000000000000000081526004018080602001828103825260208152602001807f4f776e61626c653a2063616c6c6572206973206e6f7420746865206f776e657281525060200191505060405180910390fd5b6116648161183b565b50565b6000600a60009054906101000a900460ff16905090565b600260009054906101000a900473ffffffffffffffffffffffffffffffffffffffff1681565b600080828401905083811015611722576040517f08c379a000000000000000000000000000000000000000000000000000000000815260040180806020018281038252601b8152602001807f536166654d6174683a206164646974696f6e206f766572666c6f77000000000081525060200191505060405180910390fd5b8091505092915050565b6000828211156117a4576040517f08c379a000000000000000000000000000000000000000000000000000000000815260040180806020018281038252601e8152602001807f536166654d6174683a207375627472616374696f6e206f766572666c6f77000081525060200191505060405180910390fd5b600082840390508091505092915050565b6000808314156117c85760009050611835565b60008284029050828482816117d957fe5b0414611830576040517f08c379a0000000000000000000000000000000000000000000000000000000008152600401808060200182810382526021815260200180611a6f6021913960400191505060405180910390fd5b809150505b92915050565b600073ffffffffffffffffffffffffffffffffffffffff168173ffffffffffffffffffffffffffffffffffffffff1614156118c1576040517f08c379a00000000000000000000000000000000000000000000000000000000081526004018080602001828103825260268152602001806119ef6026913960400191505060405180910390fd5b8073ffffffffffffffffffffffffffffffffffffffff166000809054906101000a900473ffffffffffffffffffffffffffffffffffffffff1673ffffffffffffffffffffffffffffffffffffffff167f8be0079c531659141344cd1fd0a4f28419497f9722a3daafe3b4186f6b6457e060405160405180910390a3806000806101000a81548173ffffffffffffffffffffffffffffffffffffffff021916908373ffffffffffffffffffffffffffffffffffffffff1602179055505056fe437573746f6d43726f776473616c6520686173207375636365656420696e2074686520707572737565206f662074686520636f6e747269627574696f6e476f616c437573746f6d43726f776473616c656420627579546f6b656e2829206861732065786365656420746865206361704f776e61626c653a206e6577206f776e657220697320746865207a65726f2061646472657373437573746f6d43726f776473616c652072656c65617365732074686520437573746f6d546f6b656e7320326d696e206166746572636f6e747269627574696f6e20706172616d65746572206d7573742062652061626f76652030536166654d6174683a206d756c7469706c69636174696f6e206f766572666c6f77a165627a7a72305820fbc7ec9afb740aa8e3a364ad0cb9712d8330f092b8ea495e27cb4e2e4d5914980029476f616c2076616c7565206d7573742062652061626f7665206361702056616c756553746172696e6754696d652074696d6520616674657220436c6f73696e6754696d65",
  "source": "// Current Solidity Version\npragma solidity >=0.5.0 <0.6.0;\n\n/*\n * @title Imports\n * Import CustomToken Module from CustomToken.sol\n * Import Ownable Module from cannonical-weth Library\n * Import SafeMath Module from openzeppelin Library\n */\nimport \"./tokens/CustomToken.sol\";\nimport \"canonical-weth/contracts/WETH9.sol\";\nimport \"openzeppelin-solidity/contracts/ownership/Ownable.sol\";\nimport \"openzeppelin-solidity/contracts/math/SafeMath.sol\";\n\n/**\n * @title CustomCrowdsale Params\n * rate - Value Defining the Current Rate for the CustomCrowdsale\n * cap - Value Defining the Current Cap for the CustomCrowdsale\n * WETH9 - Value Defining the Current WETH9 Token for the CustomCrowdsale\n * CustomToken - Value Defining the Current CustomToken for the CustomCrowdsale\n * contributionGoal - Value Defining the Current Goal for the CustomCrowdsale\n * currentContribution - Value Defining currentContribution status for the CustomCrowdsale\n * startingTime - Value Defining the startingTime for the CustomCrowdsale\n * closingTime - Value Defining the closingTime for CustomCrowdsale\n * releaseTime - Value Defining the releaseTime for CustomCrowdsale\n * ICOCompleted - Value Defining the Open/Close status for CustomCrowdsale\n * ICOGoalReached - Value Defining the status for the contributionGoal in CustomCrowdsale\n * contributions - Value Defining the every buy until claim in CustomCrowdsale\n */\ncontract CustomCrowdsale is Ownable {\n    using SafeMath for uint256;\n\n    // Tokens To Exchange during the CustomCrowdsale\n    WETH9 public weth9;\n    CustomToken public token;\n\n    // Caracteristics of the CustomCrowdsale\n    uint256 public rate;\n    uint256 public cap;\n    uint256 public contributionGoal;\n    uint256 public currentContribution = 0;\n\n    // Time Constraint Variables for the CustomCrowdsale\n    uint256 public startingTime;\n    uint256 public closingTime;\n    uint256 public releaseTime;\n\n    // Current Status for the CustomCrowdsale\n    bool public ICOCompleted = false;\n    bool public ICOGoalReached = false;\n\n    // Mapping of the Contributions for the CustomCrowdsale\n    mapping (address => uint256) public contributions;\n\n    /**\n      * Events to track during CustomCrowsale operations\n      */\n    event Contribution(address _from, uint256 _amount);\n    event ClaimContribution(address _from, uint256 _amount);\n    event CloseCrowdsale(address _from, uint256 time);\n    event claimContributionPreTx(address _sender, uint256 _claimedTokens, uint256 _balance);\n\n    //event claimContributionPostTx();\n    //event openCrowdsale();\n\n    // Setting Up Modifiers evaluating the status Open/Close for the CustomCrowdsale\n    modifier whenICOCompleted {\n        require(ICOCompleted, 'CustomCrowdsale Not Completed');\n        require(now >= releaseTime, 'CustomCrowdsale releases the CustomTokens 2min after');\n        _;\n    }\n\n    // Close function, only the owner of the CustomCrowdsale can call this function\n    function closeICO() public onlyOwner returns (bool) {\n        ICOCompleted = true;\n        emit CloseCrowdsale(msg.sender, now);\n        return true;\n    }\n\n    // Contract Constructor for CustomCrowdsale\n    // NOTE: Only a contracts with fallback function needs address playable. deposit()\n    constructor(uint256 _rate, uint256 _cap, uint256 _contributionGoal, address payable _wethAddr, address _tokenAddr, uint256 _staringTime, uint256 _closingTime, uint256 _releaseTime) public {\n        rate = _rate;\n        cap = _cap;\n        contributionGoal = _contributionGoal;\n        weth9 = WETH9(_wethAddr);\n        token = CustomToken(_tokenAddr);\n        startingTime = _staringTime;\n        closingTime = _closingTime;\n        releaseTime = _releaseTime;\n\n        /**\n          * Requirements Time constraints, cap, contributionGoal for the Constructor of the CustomCrowdsale\n          */\n        // Requirement startingTime must be after than Now\n        require(startingTime > now, 'StaringTime before Now');\n        // Requirement closingTime must be after startingTime\n        require(closingTime > startingTime, 'StaringTime time after ClosingTime');\n        // Requirement for the Cap constraint\n        require(cap > 0, 'Cap Value must be above 0');\n        // Requirement contributionGoal must be higher than 0\n        require(contributionGoal > 0, 'Goal Value must be above 0');\n        // Requirement contributionGoal must be higher than the Cap\n        require(contributionGoal > cap, 'Goal value must be above cap Value');\n    }\n\n    // hace falta aadir una funcion de fallback para poder cambiar imagino el msg.sender cuando se llama a la funcion.\n    function() external payable {\n        buyToken();\n    }\n\n    // Buy Funtion for the CustomCrowdsale\n    function buyToken() public payable returns (bool) {\n        uint256 _contribution = msg.value;\n        // Requirement contribution must be less than the Cap\n        require(_contribution < cap, 'CustomCrowdsaled buyToken() has exceed the cap');\n        // Requirement currentContribution must be less than the contributionGoal\n        require(currentContribution < contributionGoal, 'CustomCrowdsale has succeed in the pursue of the contributionGoal');\n        // Requirement contribution must be higher than 0 in the CustomCrowdsale\n        require(_contribution >= 0,'contribution parameter must be above 0');\n\n        uint256 aux = 0;\n        aux.add(_contribution);\n        aux.add(currentContribution);\n        // If the current buy does not exceed the cap but overreaches the actual contributionGoal, the tokens left would be sold instead\n        if (aux > contributionGoal) {\n            _contribution = contributionGoal.sub(currentContribution);\n            ICOGoalReached = true;\n        }\n        // Requirement transferForm must be successful\n        require(weth9.transferFrom(msg.sender, address(this), _contribution), \"transferFrom() Wether has Failed\");\n        currentContribution = currentContribution.add(_contribution);\n        contributions[msg.sender] = contributions[msg.sender].add(_contribution);\n        // Emit Current Status Post BuyToken\n        emit Contribution(msg.sender, _contribution);\n        return true;\n    }\n\n    // Claim Function for the CustomCrowdsale\n    function claimContribution() public whenICOCompleted returns (bool) {\n        // Calculate the Exchange Rate\n        uint256 claimedTokens = contributions[msg.sender].mul(rate);\n        // Emit Current Status Pre Claim\n        emit claimContributionPreTx(msg.sender, claimedTokens, contributions[msg.sender]);\n        if(contributions[msg.sender] != 0) {\n            // Requirement transfer must be successful\n            //require(token.transfer(msg.sender, claimedTokens), \"transfer() CustomTokens has Failed\");\n            require(token.transferFrom(address(this), msg.sender, claimedTokens), \"transferFrom() CTC has Failed\");\n            // Emit Current Status Post Claim\n            emit ClaimContribution(msg.sender, claimedTokens);\n            // Set the contribution of the sender to 0\n            contributions[msg.sender] = 0;\n            return true;\n        }\n        return false;\n    }\n\n    /**\n     * GETTERS\n     */\n\n    // Total Tokens held in the CustomCrowdsale\n    function getTokenTotalSupply() public view returns(uint256) {\n        return token.totalSupply();\n    }\n\n    function getTokenToClaim(address contributor) public view returns(uint256) {\n        return contributions[contributor] * rate;\n    }\n\n\n    // Total WETH9 held in the CustomCrowdsale\n    function getWethTotalSupply() public view returns (uint256) {\n        return weth9.totalSupply();\n    }\n\n    // Current Contributions\n    function getCurrentContribution() public view returns (uint256) {\n        return currentContribution;\n    }\n\n    // Current Rate in the CustomCrowdsale\n    function getRate() public view returns (uint256) {\n        return rate;\n    }\n\n    // Current Cap in the CustomCrowdsale\n    function getCap() public view returns (uint256) {\n        return cap;\n    }\n\n    // Current Goal in the CustomCrowdsale\n    function getGoal() public view returns (uint256) {\n        return contributionGoal;\n    }\n\n    // Current Completed Status in the CustomCrowdsale\n    function isCompleted() public view returns (bool) {\n        return ICOCompleted;\n    }\n\n    // Current Starting Time in the CustomCrowdsale\n    function getStartingTime() public view returns (uint256) {\n        return startingTime;\n    }\n\n    // Current ClosingTime in the CustomCrowdsale\n    function getClosingTime() public view returns (uint256) {\n        return closingTime;\n    }\n\n    // Current ReleaseTime in the CustomCrowdsale\n    function getReleaseTime() public view returns (uint256) {\n        return releaseTime;\n    }\n}\n",
  "sourcePath": "/home/asigan/Github_Projects/EthereumPARTokenCrowdSale/contracts/CustomCrowdsale.sol",
  "compiler": {
    "name": "solc",
    "version": "0.5.8+commit.23d335f2.Emscripten.clang"
  },
  "schemaVersion": "3.0.16",
  "updatedAt": "2019-11-04T20:24:20.194Z",
  "devdoc": {
    "methods": {
      "isOwner()": {
        "details": "Returns true if the caller is the current owner."
      },
      "owner()": {
        "details": "Returns the address of the current owner."
      },
      "renounceOwnership()": {
        "details": "Leaves the contract without owner. It will not be possible to call `onlyOwner` functions anymore. Can only be called by the current owner.     * > Note: Renouncing ownership will leave the contract without an owner, thereby removing any functionality that is only available to the owner."
      },
      "transferOwnership(address)": {
        "details": "Transfers ownership of the contract to a new account (`newOwner`). Can only be called by the current owner."
      }
    },
    "title": "CustomCrowdsale Params rate - Value Defining the Current Rate for the CustomCrowdsale cap - Value Defining the Current Cap for the CustomCrowdsale WETH9 - Value Defining the Current WETH9 Token for the CustomCrowdsale CustomToken - Value Defining the Current CustomToken for the CustomCrowdsale contributionGoal - Value Defining the Current Goal for the CustomCrowdsale currentContribution - Value Defining currentContribution status for the CustomCrowdsale startingTime - Value Defining the startingTime for the CustomCrowdsale closingTime - Value Defining the closingTime for CustomCrowdsale releaseTime - Value Defining the releaseTime for CustomCrowdsale ICOCompleted - Value Defining the Open/Close status for CustomCrowdsale ICOGoalReached - Value Defining the status for the contributionGoal in CustomCrowdsale contributions - Value Defining the every buy until claim in CustomCrowdsale"
  },
  "userdoc": {
    "methods": {
      "getTokenTotalSupply()": {
        "notice": "GETTERS"
      }
    }
  }
}