{
  "contractName": "CrowdSale",
  "abi": [
    {
      "constant": true,
      "inputs": [],
      "name": "stopDate",
      "outputs": [
        {
          "name": "",
          "type": "uint256"
        }
      ],
      "payable": false,
      "stateMutability": "view",
      "type": "function"
    },
    {
      "constant": true,
      "inputs": [],
      "name": "startDate",
      "outputs": [
        {
          "name": "",
          "type": "uint256"
        }
      ],
      "payable": false,
      "stateMutability": "view",
      "type": "function"
    },
    {
      "constant": true,
      "inputs": [],
      "name": "crowdSaleCompleted",
      "outputs": [
        {
          "name": "",
          "type": "bool"
        }
      ],
      "payable": false,
      "stateMutability": "view",
      "type": "function"
    },
    {
      "constant": true,
      "inputs": [],
      "name": "tokensSold",
      "outputs": [
        {
          "name": "",
          "type": "uint256"
        }
      ],
      "payable": false,
      "stateMutability": "view",
      "type": "function"
    },
    {
      "constant": true,
      "inputs": [],
      "name": "tokenContract",
      "outputs": [
        {
          "name": "",
          "type": "address"
        }
      ],
      "payable": false,
      "stateMutability": "view",
      "type": "function"
    },
    {
      "constant": false,
      "inputs": [],
      "name": "renounceOwnership",
      "outputs": [],
      "payable": false,
      "stateMutability": "nonpayable",
      "type": "function"
    },
    {
      "constant": true,
      "inputs": [],
      "name": "fundingGoal",
      "outputs": [
        {
          "name": "",
          "type": "uint256"
        }
      ],
      "payable": false,
      "stateMutability": "view",
      "type": "function"
    },
    {
      "constant": true,
      "inputs": [],
      "name": "amountRaised",
      "outputs": [
        {
          "name": "",
          "type": "uint256"
        }
      ],
      "payable": false,
      "stateMutability": "view",
      "type": "function"
    },
    {
      "constant": true,
      "inputs": [],
      "name": "tokenPrice",
      "outputs": [
        {
          "name": "",
          "type": "uint256"
        }
      ],
      "payable": false,
      "stateMutability": "view",
      "type": "function"
    },
    {
      "constant": true,
      "inputs": [],
      "name": "owner",
      "outputs": [
        {
          "name": "",
          "type": "address"
        }
      ],
      "payable": false,
      "stateMutability": "view",
      "type": "function"
    },
    {
      "constant": true,
      "inputs": [],
      "name": "isOwner",
      "outputs": [
        {
          "name": "",
          "type": "bool"
        }
      ],
      "payable": false,
      "stateMutability": "view",
      "type": "function"
    },
    {
      "constant": false,
      "inputs": [
        {
          "name": "newOwner",
          "type": "address"
        }
      ],
      "name": "transferOwnership",
      "outputs": [],
      "payable": false,
      "stateMutability": "nonpayable",
      "type": "function"
    },
    {
      "anonymous": false,
      "inputs": [
        {
          "indexed": false,
          "name": "_receiver",
          "type": "address"
        },
        {
          "indexed": false,
          "name": "_amount",
          "type": "uint256"
        }
      ],
      "name": "GoalReached",
      "type": "event"
    },
    {
      "anonymous": false,
      "inputs": [
        {
          "indexed": false,
          "name": "_buyer",
          "type": "address"
        },
        {
          "indexed": false,
          "name": "_amount",
          "type": "uint256"
        }
      ],
      "name": "PARTokenSale",
      "type": "event"
    },
    {
      "anonymous": false,
      "inputs": [
        {
          "indexed": false,
          "name": "_amount",
          "type": "uint256"
        }
      ],
      "name": "PARTokenSalesReport",
      "type": "event"
    },
    {
      "anonymous": false,
      "inputs": [
        {
          "indexed": true,
          "name": "previousOwner",
          "type": "address"
        },
        {
          "indexed": true,
          "name": "newOwner",
          "type": "address"
        }
      ],
      "name": "OwnershipTransferred",
      "type": "event"
    },
    {
      "constant": false,
      "inputs": [
        {
          "name": "_startDate",
          "type": "uint256"
        },
        {
          "name": "_stopDate",
          "type": "uint256"
        },
        {
          "name": "_fundingGoal",
          "type": "uint256"
        },
        {
          "name": "_tokenContract",
          "type": "address"
        },
        {
          "name": "_tokenPrice",
          "type": "uint256"
        }
      ],
      "name": "CrowdPARTokenSale",
      "outputs": [],
      "payable": false,
      "stateMutability": "nonpayable",
      "type": "function"
    },
    {
      "constant": true,
      "inputs": [],
      "name": "isCrowdSaleActive",
      "outputs": [
        {
          "name": "",
          "type": "bool"
        }
      ],
      "payable": false,
      "stateMutability": "view",
      "type": "function"
    },
    {
      "constant": true,
      "inputs": [],
      "name": "isCrowdSaleFinished",
      "outputs": [
        {
          "name": "",
          "type": "bool"
        }
      ],
      "payable": false,
      "stateMutability": "view",
      "type": "function"
    },
    {
      "constant": true,
      "inputs": [],
      "name": "isCrowdSaleCompleted",
      "outputs": [
        {
          "name": "",
          "type": "bool"
        }
      ],
      "payable": false,
      "stateMutability": "view",
      "type": "function"
    },
    {
      "constant": false,
      "inputs": [],
      "name": "finishCrowdSale",
      "outputs": [],
      "payable": false,
      "stateMutability": "nonpayable",
      "type": "function"
    },
    {
      "constant": false,
      "inputs": [
        {
          "name": "_numberOfTokens",
          "type": "uint256"
        }
      ],
      "name": "buyTokens",
      "outputs": [],
      "payable": true,
      "stateMutability": "payable",
      "type": "function"
    }
  ],
  "bytecode": "0x6080604052336000806101000a81548173ffffffffffffffffffffffffffffffffffffffff021916908373ffffffffffffffffffffffffffffffffffffffff1602179055506000809054906101000a900473ffffffffffffffffffffffffffffffffffffffff1673ffffffffffffffffffffffffffffffffffffffff16600073ffffffffffffffffffffffffffffffffffffffff167f8be0079c531659141344cd1fd0a4f28419497f9722a3daafe3b4186f6b6457e060405160405180910390a3611492806100cf6000396000f3fe6080604052600436106101095760003560e01c80637b3e5e7b11610095578063a07f8f1911610064578063a07f8f19146103da578063b7b1d7f714610409578063d67c1a7a14610438578063f2fde38b1461044f578063fe5ba285146104a057610109565b80637b3e5e7b146102fe5780637ff9b596146103295780638da5cb5b146103545780638f32d59b146103ab57610109565b80634941a367116100dc5780634941a367146101c1578063518ab2a81461023a57806355a373d614610265578063715018a6146102bc5780637a3a0e84146102d357610109565b806309799c011461010e5780630b97bc8614610139578063239b18b4146101645780633610724e14610193575b600080fd5b34801561011a57600080fd5b506101236104cf565b6040518082815260200191505060405180910390f35b34801561014557600080fd5b5061014e6104d5565b6040518082815260200191505060405180910390f35b34801561017057600080fd5b506101796104db565b604051808215151515815260200191505060405180910390f35b6101bf600480360360208110156101a957600080fd5b81019080803590602001909291905050506104ee565b005b3480156101cd57600080fd5b50610238600480360360a08110156101e457600080fd5b81019080803590602001909291908035906020019092919080359060200190929190803573ffffffffffffffffffffffffffffffffffffffff1690602001909291908035906020019092919050505061096f565b005b34801561024657600080fd5b5061024f6109d3565b6040518082815260200191505060405180910390f35b34801561027157600080fd5b5061027a6109d9565b604051808273ffffffffffffffffffffffffffffffffffffffff1673ffffffffffffffffffffffffffffffffffffffff16815260200191505060405180910390f35b3480156102c857600080fd5b506102d16109ff565b005b3480156102df57600080fd5b506102e8610b38565b6040518082815260200191505060405180910390f35b34801561030a57600080fd5b50610313610b3e565b6040518082815260200191505060405180910390f35b34801561033557600080fd5b5061033e610b44565b6040518082815260200191505060405180910390f35b34801561036057600080fd5b50610369610b4a565b604051808273ffffffffffffffffffffffffffffffffffffffff1673ffffffffffffffffffffffffffffffffffffffff16815260200191505060405180910390f35b3480156103b757600080fd5b506103c0610b73565b604051808215151515815260200191505060405180910390f35b3480156103e657600080fd5b506103ef610bca565b604051808215151515815260200191505060405180910390f35b34801561041557600080fd5b5061041e610bd6565b604051808215151515815260200191505060405180910390f35b34801561044457600080fd5b5061044d610c00565b005b34801561045b57600080fd5b5061049e6004803603602081101561047257600080fd5b81019080803573ffffffffffffffffffffffffffffffffffffffff169060200190929190505050610faa565b005b3480156104ac57600080fd5b506104b5611030565b604051808215151515815260200191505060405180910390f35b60035481565b60025481565b600660009054906101000a900460ff1681565b6104f6611030565b1561054c576040517f08c379a000000000000000000000000000000000000000000000000000000000815260040180806020018281038252603c81526020018061134f603c913960400191505060405180910390fd5b610554610bd6565b6105a9576040517f08c379a000000000000000000000000000000000000000000000000000000000815260040180806020018281038252604181526020018061138b6041913960600191505060405180910390fd5b6105b58160075461104b565b341461060c576040517f08c379a00000000000000000000000000000000000000000000000000000000081526004018080602001828103825260278152602001806113cc6027913960400191505060405180910390fd5b80600660019054906101000a900473ffffffffffffffffffffffffffffffffffffffff1673ffffffffffffffffffffffffffffffffffffffff166370a08231600160009054906101000a900473ffffffffffffffffffffffffffffffffffffffff166040518263ffffffff1660e01b8152600401808273ffffffffffffffffffffffffffffffffffffffff1673ffffffffffffffffffffffffffffffffffffffff16815260200191505060206040518083038186803b1580156106ce57600080fd5b505afa1580156106e2573d6000803e3d6000fd5b505050506040513d60208110156106f857600080fd5b81019080805190602001909291905050501015610760576040517f08c379a00000000000000000000000000000000000000000000000000000000081526004018080602001828103825260278152602001806113cc6027913960400191505060405180910390fd5b600660019054906101000a900473ffffffffffffffffffffffffffffffffffffffff1673ffffffffffffffffffffffffffffffffffffffff1663a9059cbb33836040518363ffffffff1660e01b8152600401808373ffffffffffffffffffffffffffffffffffffffff1673ffffffffffffffffffffffffffffffffffffffff16815260200182815260200192505050602060405180830381600087803b15801561080957600080fd5b505af115801561081d573d6000803e3d6000fd5b505050506040513d602081101561083357600080fd5b8101908080519060200190929190505050610899576040517f08c379a00000000000000000000000000000000000000000000000000000000081526004018080602001828103825260278152602001806113cc6027913960400191505060405180910390fd5b6108ae816008546110d690919063ffffffff16565b6008819055506108c260075460085461104b565b6005819055507f65eb3813e4460966acc9e707a384212ce8adaad171809fe015259f07f4777b893382604051808373ffffffffffffffffffffffffffffffffffffffff1673ffffffffffffffffffffffffffffffffffffffff1681526020018281526020019250505060405180910390a17f968c5e4d748013fcf43975b102930e18aff0cace7948c5da9a01b6795917e4506005546040518082815260200191505060405180910390a150565b84600281905550836003819055508260048190555081600660016101000a81548173ffffffffffffffffffffffffffffffffffffffff021916908373ffffffffffffffffffffffffffffffffffffffff160217905550806007819055505050505050565b60085481565b600660019054906101000a900473ffffffffffffffffffffffffffffffffffffffff1681565b610a07610b73565b610a79576040517f08c379a00000000000000000000000000000000000000000000000000000000081526004018080602001828103825260208152602001807f4f776e61626c653a2063616c6c6572206973206e6f7420746865206f776e657281525060200191505060405180910390fd5b600073ffffffffffffffffffffffffffffffffffffffff166000809054906101000a900473ffffffffffffffffffffffffffffffffffffffff1673ffffffffffffffffffffffffffffffffffffffff167f8be0079c531659141344cd1fd0a4f28419497f9722a3daafe3b4186f6b6457e060405160405180910390a360008060006101000a81548173ffffffffffffffffffffffffffffffffffffffff021916908373ffffffffffffffffffffffffffffffffffffffff160217905550565b60045481565b60055481565b60075481565b60008060009054906101000a900473ffffffffffffffffffffffffffffffffffffffff16905090565b60008060009054906101000a900473ffffffffffffffffffffffffffffffffffffffff1673ffffffffffffffffffffffffffffffffffffffff163373ffffffffffffffffffffffffffffffffffffffff1614905090565b60006003544211905090565b60006002544210158015610bec57506003544211155b8015610bfb5750600454600554105b905090565b610c08610b73565b610c7a576040517f08c379a00000000000000000000000000000000000000000000000000000000081526004018080602001828103825260208152602001807f4f776e61626c653a2063616c6c6572206973206e6f7420746865206f776e657281525060200191505060405180910390fd5b610c82610bd6565b15610cd8576040517f08c379a000000000000000000000000000000000000000000000000000000000815260040180806020018281038252604181526020018061138b6041913960600191505060405180910390fd5b610ce0610bca565b610d35576040517f08c379a00000000000000000000000000000000000000000000000000000000081526004018080602001828103825260538152602001806113f36053913960600191505060405180910390fd5b600660019054906101000a900473ffffffffffffffffffffffffffffffffffffffff1673ffffffffffffffffffffffffffffffffffffffff1663a9059cbb600160009054906101000a900473ffffffffffffffffffffffffffffffffffffffff16600660019054906101000a900473ffffffffffffffffffffffffffffffffffffffff1673ffffffffffffffffffffffffffffffffffffffff166370a08231600160009054906101000a900473ffffffffffffffffffffffffffffffffffffffff166040518263ffffffff1660e01b8152600401808273ffffffffffffffffffffffffffffffffffffffff1673ffffffffffffffffffffffffffffffffffffffff16815260200191505060206040518083038186803b158015610e5757600080fd5b505afa158015610e6b573d6000803e3d6000fd5b505050506040513d6020811015610e8157600080fd5b81019080805190602001909291905050506040518363ffffffff1660e01b8152600401808373ffffffffffffffffffffffffffffffffffffffff1673ffffffffffffffffffffffffffffffffffffffff16815260200182815260200192505050602060405180830381600087803b158015610efb57600080fd5b505af1158015610f0f573d6000803e3d6000fd5b505050506040513d6020811015610f2557600080fd5b8101908080519060200190929190505050610fa8576040517f08c379a000000000000000000000000000000000000000000000000000000000815260040180806020018281038252600a8152602001807f5b204572726f72205d200000000000000000000000000000000000000000000081525060200191505060405180910390fd5b565b610fb2610b73565b611024576040517f08c379a00000000000000000000000000000000000000000000000000000000081526004018080602001828103825260208152602001807f4f776e61626c653a2063616c6c6572206973206e6f7420746865206f776e657281525060200191505060405180910390fd5b61102d8161115e565b50565b6000600354421180156110465750600454600554115b905090565b6000808214806110785750828261106b84866112a290919063ffffffff16565b9250828161107557fe5b04145b6110cd576040517f08c379a00000000000000000000000000000000000000000000000000000000081526004018080602001828103825260278152602001806113cc6027913960400191505060405180910390fd5b80905092915050565b600080828401905083811015611154576040517f08c379a000000000000000000000000000000000000000000000000000000000815260040180806020018281038252601b8152602001807f536166654d6174683a206164646974696f6e206f766572666c6f77000000000081525060200191505060405180910390fd5b8091505092915050565b600073ffffffffffffffffffffffffffffffffffffffff168173ffffffffffffffffffffffffffffffffffffffff1614156111e4576040517f08c379a00000000000000000000000000000000000000000000000000000000081526004018080602001828103825260268152602001806113296026913960400191505060405180910390fd5b8073ffffffffffffffffffffffffffffffffffffffff166000809054906101000a900473ffffffffffffffffffffffffffffffffffffffff1673ffffffffffffffffffffffffffffffffffffffff167f8be0079c531659141344cd1fd0a4f28419497f9722a3daafe3b4186f6b6457e060405160405180910390a3806000806101000a81548173ffffffffffffffffffffffffffffffffffffffff021916908373ffffffffffffffffffffffffffffffffffffffff16021790555050565b6000808314156112b55760009050611322565b60008284029050828482816112c657fe5b041461131d576040517f08c379a00000000000000000000000000000000000000000000000000000000081526004018080602001828103825260218152602001806114466021913960400191505060405180910390fd5b809150505b9291505056fe4f776e61626c653a206e6577206f776e657220697320746865207a65726f20616464726573735b204552524f52205d2046756e647320666f72207468652043726f776453616c652068617320416c7265616479206265656e204163686965766564205b204552524f52205d20526571756972656d656e74206e6f742041636869657665642c2043726f776453616c65206973206e6f204c6f6e676572204163746976655b204572726f72205d204d756c7469706c7920526571756972656d656e7473204e6f74204d65745b204552524f52205d20526571756972656d656e74206e6f742041636869657665642c2043757272656e742054696d65204672616d65206e6f742056616c69642028206e6f77203c2073746f70446174652029536166654d6174683a206d756c7469706c69636174696f6e206f766572666c6f77a165627a7a723058201256182c054081324705edf38bed5093cbb52964086bef32af9db6d072ec08320029",
  "source": "// This program is free software: you can redistribute it and/or modify\n// it under the terms of the GNU General Public License as published by\n// the Free Software Foundation, either version 3 of the License, or\n// (at your option) any later version.\n\n// This program is distributed in the hope that it will be useful,\n// but WITHOUT ANY WARRANTY; without even the implied warranty of\n// MERCHANTABILITY or FITNESS FOR A PARTICULAR PURPOSE.  See the\n// GNU General Public License for more details.\n\n// You should have received a copy of the GNU General Public License\n// along with this program.  If not, see <http://www.gnu.org/licenses/>.\n\n\npragma solidity ^0.5.0;\n\n/*\n    @dev Import Custom Token from Module PARToken.\n*/\nimport \"./PARToken.sol\";\n\n/*\n    @dev Import Ownable Module from OpenZeppelin.\n*/\nimport \"openzeppelin-solidity/contracts/ownership/Ownable.sol\";\n\n/*\n    @dev Import Module Cannonical-Weth.\n*/\nimport \"canonical-weth/contracts/WETH9.sol\";\n\n\n/**\n    @dev Ownable node_module to Grant Ownable Properties to the Contract CrowdSale.\n*/\ncontract CrowdSale is Ownable {\n    /**\n        @dev SafeMath node_module to Grant Protection Against UnderFlow/OverFlow Attacks in Arithmetical Operations.\n    */\n    using SafeMath for uint256;\n    /**\n        @dev _owner Current Owner of the Contract CrowdSale Operation.\n    */\n    address private _owner;\n\n    /**\n        @dev startDate Starting Point for the CrowdSale PARToken Sale Operation.\n        @dev stopDate Ending Point for the CrowdSale PARToken Sale Operation.\n    */\n\n    uint256 public startDate;\n    uint256 public stopDate;\n\n    /**\n        @dev fundingGoal Funding Goal for the CrowdSale PARToken Sale Operation.\n        @dev amountRaised Current Amount of Funding for the CrowdSale PARToken Sale Operation.\n    */\n    uint256 public fundingGoal;\n    uint256 public amountRaised;\n    bool public crowdSaleCompleted;\n\n\n    PARToken public tokenContract;\n\n    uint256 public tokenPrice;\n    uint256 public tokensSold;\n\n    // event Sell(address _buyer, uint256 _amount);\n\n    /**\n        @dev GoalReached.\n        @dev PARTokenSale.\n        @dev PARTokenSalesReport.\n    */\n    event GoalReached(address _receiver, uint256 _amount);\n    event PARTokenSale(address _buyer, uint256 _amount);\n    event PARTokenSalesReport(uint256 _amount);\n\n\n    /**\n\n    */\n    function CrowdPARTokenSale(\n        uint256 _startDate,\n        uint256 _stopDate,\n        uint256 _fundingGoal,\n        PARToken _tokenContract,\n        uint256 _tokenPrice) public {\n\n        startDate = _startDate;\n        stopDate =_stopDate;\n\n        fundingGoal = _fundingGoal;\n        tokenContract = _tokenContract;\n        tokenPrice = _tokenPrice;\n    }\n\n    /**\n        @dev getCurrentTimeStamp.\n    */\n    function getCurrentTimeStamp() internal view returns (uint256) {\n        return now;\n    }\n\n    /**\n        @dev isCrowdSaleActive.\n    */\n    function isCrowdSaleActive() public view returns (bool) {\n        return (now >= startDate && now <= stopDate && amountRaised < fundingGoal);\n    }\n\n    /**\n        @dev isCrowdSaleActive.\n    */\n    function isCrowdSaleFinished() public view returns (bool) {\n        return (now > stopDate);\n    }\n\n    /**\n        @dev isCrowdSaleActive.\n    */\n    function isCrowdSaleCompleted() public view returns (bool){\n        return (now > stopDate && amountRaised > fundingGoal);\n    }\n\n    /**\n        @dev !isContractSaleActive() CrowdSale Operation must be Active.\n        @dev isCrowdSaleFinished() CrowdSale Operation within the Established Limits / Time Frame.\n        @dev tokeContract.\n    */\n    function finishCrowdSale() public onlyOwner {\n        require(!isCrowdSaleActive(), '[ ERROR ] Requirement not Achieved, CrowdSale is no Longer Active');\n        require(isCrowdSaleFinished(), '[ ERROR ] Requirement not Achieved, Current Time Frame not Valid ( now < stopDate )');\n\n        require(tokenContract.transfer(_owner, tokenContract.balanceOf(_owner)), '[ Error ] ');\n    }\n\n\n    /**\n\n    */\n    function multiply(uint256 x, uint256 y) internal pure returns (uint256 z) {\n        require(y == 0 || (z = x.mul(y)) / y == x, '[ Error ] Multiply Requirements Not Met');\n        return z;\n    }\n\n    /**\n\n    */\n    function buyTokens(uint256 _numberOfTokens) public payable {\n        require(!isCrowdSaleCompleted(), '[ ERROR ] Funds for the CrowdSale has Already been Achieved ');\n        require(isCrowdSaleActive(), '[ ERROR ] Requirement not Achieved, CrowdSale is no Longer Active');\n\n\n\n        require(msg.value == multiply(_numberOfTokens, tokenPrice), '[ Error ] Multiply Requirements Not Met');\n        require(tokenContract.balanceOf(_owner) >= _numberOfTokens, '[ Error ] Multiply Requirements Not Met');\n        require(tokenContract.transfer(msg.sender, _numberOfTokens), '[ Error ] Multiply Requirements Not Met');\n\n        /**\n            @dev tokensSold.\n            @dev amountRaised.\n        */\n        tokensSold = tokensSold.add(_numberOfTokens);\n        amountRaised = multiply(tokenPrice, tokensSold);\n\n        /**\n            @dev PARTokenSale.\n            @dev PARTokenSalesReport.\n        */\n        emit PARTokenSale(msg.sender, _numberOfTokens);\n        emit PARTokenSalesReport(amountRaised);\n    }\n}\n",
  "sourcePath": "/home/asigan/Escritorio/GitHub/ICO_Example/contracts/CrowdSale.sol",
  "compiler": {
    "name": "solc",
    "version": "0.5.8+commit.23d335f2.Emscripten.clang"
  },
  "schemaVersion": "3.0.16",
  "updatedAt": "2019-10-08T16:50:47.391Z",
  "devdoc": {
    "details": "Ownable node_module to Grant Ownable Properties to the Contract CrowdSale.",
    "methods": {
      "finishCrowdSale()": {
        "details": "!isContractSaleActive() CrowdSale Operation must be Active.isCrowdSaleFinished() CrowdSale Operation within the Established Limits / Time Frame.tokeContract."
      },
      "isCrowdSaleActive()": {
        "details": "isCrowdSaleActive."
      },
      "isCrowdSaleCompleted()": {
        "details": "isCrowdSaleActive."
      },
      "isCrowdSaleFinished()": {
        "details": "isCrowdSaleActive."
      },
      "isOwner()": {
        "details": "Returns true if the caller is the current owner."
      },
      "owner()": {
        "details": "Returns the address of the current owner."
      },
      "renounceOwnership()": {
        "details": "Leaves the contract without owner. It will not be possible to call `onlyOwner` functions anymore. Can only be called by the current owner.     * > Note: Renouncing ownership will leave the contract without an owner, thereby removing any functionality that is only available to the owner."
      },
      "transferOwnership(address)": {
        "details": "Transfers ownership of the contract to a new account (`newOwner`). Can only be called by the current owner."
      }
    }
  },
  "userdoc": {
    "methods": {}
  }
}